{
	"src/MyERC20.sol": {
		"MyERC20": {
			"abi": [
				{
					"inputs": [
						{
							"internalType": "address",
							"name": "spender",
							"type": "address"
						},
						{
							"internalType": "uint256",
							"name": "allowance",
							"type": "uint256"
						},
						{
							"internalType": "uint256",
							"name": "needed",
							"type": "uint256"
						}
					],
					"name": "ERC20InsufficientAllowance",
					"type": "error"
				},
				{
					"inputs": [
						{
							"internalType": "address",
							"name": "sender",
							"type": "address"
						},
						{
							"internalType": "uint256",
							"name": "balance",
							"type": "uint256"
						},
						{
							"internalType": "uint256",
							"name": "needed",
							"type": "uint256"
						}
					],
					"name": "ERC20InsufficientBalance",
					"type": "error"
				},
				{
					"inputs": [
						{
							"internalType": "address",
							"name": "approver",
							"type": "address"
						}
					],
					"name": "ERC20InvalidApprover",
					"type": "error"
				},
				{
					"inputs": [
						{
							"internalType": "address",
							"name": "receiver",
							"type": "address"
						}
					],
					"name": "ERC20InvalidReceiver",
					"type": "error"
				},
				{
					"inputs": [
						{
							"internalType": "address",
							"name": "sender",
							"type": "address"
						}
					],
					"name": "ERC20InvalidSender",
					"type": "error"
				},
				{
					"inputs": [
						{
							"internalType": "address",
							"name": "spender",
							"type": "address"
						}
					],
					"name": "ERC20InvalidSpender",
					"type": "error"
				},
				{
					"inputs": [],
					"name": "InvalidInitialization",
					"type": "error"
				},
				{
					"inputs": [],
					"name": "NotInitializing",
					"type": "error"
				},
				{
					"anonymous": false,
					"inputs": [
						{
							"indexed": true,
							"internalType": "address",
							"name": "owner",
							"type": "address"
						},
						{
							"indexed": true,
							"internalType": "address",
							"name": "spender",
							"type": "address"
						},
						{
							"indexed": false,
							"internalType": "uint256",
							"name": "value",
							"type": "uint256"
						}
					],
					"name": "Approval",
					"type": "event"
				},
				{
					"anonymous": false,
					"inputs": [
						{
							"indexed": false,
							"internalType": "uint64",
							"name": "version",
							"type": "uint64"
						}
					],
					"name": "Initialized",
					"type": "event"
				},
				{
					"anonymous": false,
					"inputs": [
						{
							"indexed": true,
							"internalType": "address",
							"name": "from",
							"type": "address"
						},
						{
							"indexed": true,
							"internalType": "address",
							"name": "to",
							"type": "address"
						},
						{
							"indexed": false,
							"internalType": "uint256",
							"name": "value",
							"type": "uint256"
						}
					],
					"name": "Transfer",
					"type": "event"
				},
				{
					"inputs": [
						{
							"internalType": "address",
							"name": "owner",
							"type": "address"
						},
						{
							"internalType": "address",
							"name": "spender",
							"type": "address"
						}
					],
					"name": "allowance",
					"outputs": [
						{
							"internalType": "uint256",
							"name": "",
							"type": "uint256"
						}
					],
					"stateMutability": "view",
					"type": "function"
				},
				{
					"inputs": [
						{
							"internalType": "address",
							"name": "spender",
							"type": "address"
						},
						{
							"internalType": "uint256",
							"name": "value",
							"type": "uint256"
						}
					],
					"name": "approve",
					"outputs": [
						{
							"internalType": "bool",
							"name": "",
							"type": "bool"
						}
					],
					"stateMutability": "nonpayable",
					"type": "function"
				},
				{
					"inputs": [
						{
							"internalType": "address",
							"name": "account",
							"type": "address"
						}
					],
					"name": "balanceOf",
					"outputs": [
						{
							"internalType": "uint256",
							"name": "",
							"type": "uint256"
						}
					],
					"stateMutability": "view",
					"type": "function"
				},
				{
					"inputs": [],
					"name": "decimals",
					"outputs": [
						{
							"internalType": "uint8",
							"name": "",
							"type": "uint8"
						}
					],
					"stateMutability": "view",
					"type": "function"
				},
				{
					"inputs": [],
					"name": "name",
					"outputs": [
						{
							"internalType": "string",
							"name": "",
							"type": "string"
						}
					],
					"stateMutability": "view",
					"type": "function"
				},
				{
					"inputs": [],
					"name": "symbol",
					"outputs": [
						{
							"internalType": "string",
							"name": "",
							"type": "string"
						}
					],
					"stateMutability": "view",
					"type": "function"
				},
				{
					"inputs": [],
					"name": "totalSupply",
					"outputs": [
						{
							"internalType": "uint256",
							"name": "",
							"type": "uint256"
						}
					],
					"stateMutability": "view",
					"type": "function"
				},
				{
					"inputs": [
						{
							"internalType": "address",
							"name": "to",
							"type": "address"
						},
						{
							"internalType": "uint256",
							"name": "value",
							"type": "uint256"
						}
					],
					"name": "transfer",
					"outputs": [
						{
							"internalType": "bool",
							"name": "",
							"type": "bool"
						}
					],
					"stateMutability": "nonpayable",
					"type": "function"
				},
				{
					"inputs": [
						{
							"internalType": "address",
							"name": "from",
							"type": "address"
						},
						{
							"internalType": "address",
							"name": "to",
							"type": "address"
						},
						{
							"internalType": "uint256",
							"name": "value",
							"type": "uint256"
						}
					],
					"name": "transferFrom",
					"outputs": [
						{
							"internalType": "bool",
							"name": "",
							"type": "bool"
						}
					],
					"stateMutability": "nonpayable",
					"type": "function"
				},
				{
					"inputs": [
						{
							"internalType": "address",
							"name": "recipient",
							"type": "address"
						},
						{
							"internalType": "uint256",
							"name": "amount",
							"type": "uint256"
						}
					],
					"name": "transferWithCallback",
					"outputs": [
						{
							"internalType": "bool",
							"name": "",
							"type": "bool"
						}
					],
					"stateMutability": "nonpayable",
					"type": "function"
				}
			],
			"devdoc": {
				"errors": {
					"ERC20InsufficientAllowance(address,uint256,uint256)": [
						{
							"details": "Indicates a failure with the `spender`’s `allowance`. Used in transfers.",
							"params": {
								"allowance": "Amount of tokens a `spender` is allowed to operate with.",
								"needed": "Minimum amount required to perform a transfer.",
								"spender": "Address that may be allowed to operate on tokens without being their owner."
							}
						}
					],
					"ERC20InsufficientBalance(address,uint256,uint256)": [
						{
							"details": "Indicates an error related to the current `balance` of a `sender`. Used in transfers.",
							"params": {
								"balance": "Current balance for the interacting account.",
								"needed": "Minimum amount required to perform a transfer.",
								"sender": "Address whose tokens are being transferred."
							}
						}
					],
					"ERC20InvalidApprover(address)": [
						{
							"details": "Indicates a failure with the `approver` of a token to be approved. Used in approvals.",
							"params": {
								"approver": "Address initiating an approval operation."
							}
						}
					],
					"ERC20InvalidReceiver(address)": [
						{
							"details": "Indicates a failure with the token `receiver`. Used in transfers.",
							"params": {
								"receiver": "Address to which tokens are being transferred."
							}
						}
					],
					"ERC20InvalidSender(address)": [
						{
							"details": "Indicates a failure with the token `sender`. Used in transfers.",
							"params": {
								"sender": "Address whose tokens are being transferred."
							}
						}
					],
					"ERC20InvalidSpender(address)": [
						{
							"details": "Indicates a failure with the `spender` to be approved. Used in approvals.",
							"params": {
								"spender": "Address that may be allowed to operate on tokens without being their owner."
							}
						}
					],
					"InvalidInitialization()": [
						{
							"details": "The contract is already initialized."
						}
					],
					"NotInitializing()": [
						{
							"details": "The contract is not initializing."
						}
					]
				},
				"events": {
					"Approval(address,address,uint256)": {
						"details": "Emitted when the allowance of a `spender` for an `owner` is set by a call to {approve}. `value` is the new allowance."
					},
					"Initialized(uint64)": {
						"details": "Triggered when the contract has been initialized or reinitialized."
					},
					"Transfer(address,address,uint256)": {
						"details": "Emitted when `value` tokens are moved from one account (`from`) to another (`to`). Note that `value` may be zero."
					}
				},
				"kind": "dev",
				"methods": {
					"allowance(address,address)": {
						"details": "See {IERC20-allowance}."
					},
					"approve(address,uint256)": {
						"details": "See {IERC20-approve}. NOTE: If `value` is the maximum `uint256`, the allowance is not updated on `transferFrom`. This is semantically equivalent to an infinite approval. Requirements: - `spender` cannot be the zero address."
					},
					"balanceOf(address)": {
						"details": "See {IERC20-balanceOf}."
					},
					"decimals()": {
						"details": "Returns the number of decimals used to get its user representation. For example, if `decimals` equals `2`, a balance of `505` tokens should be displayed to a user as `5.05` (`505 / 10 ** 2`). Tokens usually opt for a value of 18, imitating the relationship between Ether and Wei. This is the default value returned by this function, unless it's overridden. NOTE: This information is only used for _display_ purposes: it in no way affects any of the arithmetic of the contract, including {IERC20-balanceOf} and {IERC20-transfer}."
					},
					"name()": {
						"details": "Returns the name of the token."
					},
					"symbol()": {
						"details": "Returns the symbol of the token, usually a shorter version of the name."
					},
					"totalSupply()": {
						"details": "See {IERC20-totalSupply}."
					},
					"transfer(address,uint256)": {
						"details": "See {IERC20-transfer}. Requirements: - `to` cannot be the zero address. - the caller must have a balance of at least `value`."
					},
					"transferFrom(address,address,uint256)": {
						"details": "See {IERC20-transferFrom}. Emits an {Approval} event indicating the updated allowance. This is not required by the EIP. See the note at the beginning of {ERC20}. NOTE: Does not update the allowance if the current allowance is the maximum `uint256`. Requirements: - `from` and `to` cannot be the zero address. - `from` must have a balance of at least `value`. - the caller must have allowance for ``from``'s tokens of at least `value`."
					}
				},
				"version": 1
			},
			"evm": {
				"assembly": "    /* \"src/MyERC20.sol\":353:856  contract MyERC20 is ERC20Upgradeable {... */\n  mstore(0x40, 0x80)\n  callvalue\n  dup1\n  iszero\n  tag_1\n  jumpi\n  0x00\n  dup1\n  revert\ntag_1:\n  pop\n  dataSize(sub_0)\n  dup1\n  dataOffset(sub_0)\n  0x00\n  codecopy\n  0x00\n  return\nstop\n\nsub_0: assembly {\n        /* \"src/MyERC20.sol\":353:856  contract MyERC20 is ERC20Upgradeable {... */\n      mstore(0x40, 0x80)\n      callvalue\n      dup1\n      iszero\n      tag_1\n      jumpi\n      0x00\n      dup1\n      revert\n    tag_1:\n      pop\n      jumpi(tag_2, lt(calldatasize, 0x04))\n      shr(0xe0, calldataload(0x00))\n      dup1\n      0x313ce567\n      gt\n      tag_13\n      jumpi\n      dup1\n      0x313ce567\n      eq\n      tag_8\n      jumpi\n      dup1\n      0x70a08231\n      eq\n      tag_9\n      jumpi\n      dup1\n      0x95d89b41\n      eq\n      tag_10\n      jumpi\n      dup1\n      0xa9059cbb\n      eq\n      tag_11\n      jumpi\n      dup1\n      0xdd62ed3e\n      eq\n      tag_12\n      jumpi\n      jump(tag_2)\n    tag_13:\n      dup1\n      0x06fdde03\n      eq\n      tag_3\n      jumpi\n      dup1\n      0x095ea7b3\n      eq\n      tag_4\n      jumpi\n      dup1\n      0x18160ddd\n      eq\n      tag_5\n      jumpi\n      dup1\n      0x1a825b75\n      eq\n      tag_6\n      jumpi\n      dup1\n      0x23b872dd\n      eq\n      tag_7\n      jumpi\n    tag_2:\n      0x00\n      dup1\n      revert\n        /* \"@openzeppelin/contracts-upgradeable/token/ERC20/ERC20Upgradeable.sol\":3011:3155  function name() public view virtual returns (string memory) {... */\n    tag_3:\n      tag_14\n      tag_15\n      jump\t// in\n    tag_14:\n      mload(0x40)\n      tag_16\n      swap2\n      swap1\n      tag_17\n      jump\t// in\n    tag_16:\n      mload(0x40)\n      dup1\n      swap2\n      sub\n      swap1\n      return\n        /* \"@openzeppelin/contracts-upgradeable/token/ERC20/ERC20Upgradeable.sol\":5505:5691  function approve(address spender, uint256 value) public virtual returns (bool) {... */\n    tag_4:\n      tag_18\n      0x04\n      dup1\n      calldatasize\n      sub\n      dup2\n      add\n      swap1\n      tag_19\n      swap2\n      swap1\n      tag_20\n      jump\t// in\n    tag_19:\n      tag_21\n      jump\t// in\n    tag_18:\n      mload(0x40)\n      tag_22\n      swap2\n      swap1\n      tag_23\n      jump\t// in\n    tag_22:\n      mload(0x40)\n      dup1\n      swap2\n      sub\n      swap1\n      return\n        /* \"@openzeppelin/contracts-upgradeable/token/ERC20/ERC20Upgradeable.sol\":4191:4343  function totalSupply() public view virtual returns (uint256) {... */\n    tag_5:\n      tag_24\n      tag_25\n      jump\t// in\n    tag_24:\n      mload(0x40)\n      tag_26\n      swap2\n      swap1\n      tag_27\n      jump\t// in\n    tag_26:\n      mload(0x40)\n      dup1\n      swap2\n      sub\n      swap1\n      return\n        /* \"src/MyERC20.sol\":439:854  function transferWithCallback(... */\n    tag_6:\n      tag_28\n      0x04\n      dup1\n      calldatasize\n      sub\n      dup2\n      add\n      swap1\n      tag_29\n      swap2\n      swap1\n      tag_20\n      jump\t// in\n    tag_29:\n      tag_30\n      jump\t// in\n    tag_28:\n      mload(0x40)\n      tag_31\n      swap2\n      swap1\n      tag_23\n      jump\t// in\n    tag_31:\n      mload(0x40)\n      dup1\n      swap2\n      sub\n      swap1\n      return\n        /* \"@openzeppelin/contracts-upgradeable/token/ERC20/ERC20Upgradeable.sol\":6251:6495  function transferFrom(address from, address to, uint256 value) public virtual returns (bool) {... */\n    tag_7:\n      tag_32\n      0x04\n      dup1\n      calldatasize\n      sub\n      dup2\n      add\n      swap1\n      tag_33\n      swap2\n      swap1\n      tag_34\n      jump\t// in\n    tag_33:\n      tag_35\n      jump\t// in\n    tag_32:\n      mload(0x40)\n      tag_36\n      swap2\n      swap1\n      tag_23\n      jump\t// in\n    tag_36:\n      mload(0x40)\n      dup1\n      swap2\n      sub\n      swap1\n      return\n        /* \"@openzeppelin/contracts-upgradeable/token/ERC20/ERC20Upgradeable.sol\":4049:4131  function decimals() public view virtual returns (uint8) {... */\n    tag_8:\n      tag_37\n      tag_38\n      jump\t// in\n    tag_37:\n      mload(0x40)\n      tag_39\n      swap2\n      swap1\n      tag_40\n      jump\t// in\n    tag_39:\n      mload(0x40)\n      dup1\n      swap2\n      sub\n      swap1\n      return\n        /* \"@openzeppelin/contracts-upgradeable/token/ERC20/ERC20Upgradeable.sol\":4401:4572  function balanceOf(address account) public view virtual returns (uint256) {... */\n    tag_9:\n      tag_41\n      0x04\n      dup1\n      calldatasize\n      sub\n      dup2\n      add\n      swap1\n      tag_42\n      swap2\n      swap1\n      tag_43\n      jump\t// in\n    tag_42:\n      tag_44\n      jump\t// in\n    tag_41:\n      mload(0x40)\n      tag_45\n      swap2\n      swap1\n      tag_27\n      jump\t// in\n    tag_45:\n      mload(0x40)\n      dup1\n      swap2\n      sub\n      swap1\n      return\n        /* \"@openzeppelin/contracts-upgradeable/token/ERC20/ERC20Upgradeable.sol\":3268:3416  function symbol() public view virtual returns (string memory) {... */\n    tag_10:\n      tag_46\n      tag_47\n      jump\t// in\n    tag_46:\n      mload(0x40)\n      tag_48\n      swap2\n      swap1\n      tag_17\n      jump\t// in\n    tag_48:\n      mload(0x40)\n      dup1\n      swap2\n      sub\n      swap1\n      return\n        /* \"@openzeppelin/contracts-upgradeable/token/ERC20/ERC20Upgradeable.sol\":4767:4945  function transfer(address to, uint256 value) public virtual returns (bool) {... */\n    tag_11:\n      tag_49\n      0x04\n      dup1\n      calldatasize\n      sub\n      dup2\n      add\n      swap1\n      tag_50\n      swap2\n      swap1\n      tag_20\n      jump\t// in\n    tag_50:\n      tag_51\n      jump\t// in\n    tag_49:\n      mload(0x40)\n      tag_52\n      swap2\n      swap1\n      tag_23\n      jump\t// in\n    tag_52:\n      mload(0x40)\n      dup1\n      swap2\n      sub\n      swap1\n      return\n        /* \"@openzeppelin/contracts-upgradeable/token/ERC20/ERC20Upgradeable.sol\":5003:5198  function allowance(address owner, address spender) public view virtual returns (uint256) {... */\n    tag_12:\n      tag_53\n      0x04\n      dup1\n      calldatasize\n      sub\n      dup2\n      add\n      swap1\n      tag_54\n      swap2\n      swap1\n      tag_55\n      jump\t// in\n    tag_54:\n      tag_56\n      jump\t// in\n    tag_53:\n      mload(0x40)\n      tag_57\n      swap2\n      swap1\n      tag_27\n      jump\t// in\n    tag_57:\n      mload(0x40)\n      dup1\n      swap2\n      sub\n      swap1\n      return\n        /* \"@openzeppelin/contracts-upgradeable/token/ERC20/ERC20Upgradeable.sol\":3011:3155  function name() public view virtual returns (string memory) {... */\n    tag_15:\n        /* \"@openzeppelin/contracts-upgradeable/token/ERC20/ERC20Upgradeable.sol\":3056:3069  string memory */\n      0x60\n        /* \"@openzeppelin/contracts-upgradeable/token/ERC20/ERC20Upgradeable.sol\":3081:3103  ERC20Storage storage $ */\n      0x00\n        /* \"@openzeppelin/contracts-upgradeable/token/ERC20/ERC20Upgradeable.sol\":3106:3124  _getERC20Storage() */\n      tag_59\n        /* \"@openzeppelin/contracts-upgradeable/token/ERC20/ERC20Upgradeable.sol\":3106:3122  _getERC20Storage */\n      tag_60\n        /* \"@openzeppelin/contracts-upgradeable/token/ERC20/ERC20Upgradeable.sol\":3106:3124  _getERC20Storage() */\n      jump\t// in\n    tag_59:\n        /* \"@openzeppelin/contracts-upgradeable/token/ERC20/ERC20Upgradeable.sol\":3081:3124  ERC20Storage storage $ = _getERC20Storage() */\n      swap1\n      pop\n        /* \"@openzeppelin/contracts-upgradeable/token/ERC20/ERC20Upgradeable.sol\":3141:3142  $ */\n      dup1\n        /* \"@openzeppelin/contracts-upgradeable/token/ERC20/ERC20Upgradeable.sol\":3141:3148  $._name */\n      0x03\n      add\n        /* \"@openzeppelin/contracts-upgradeable/token/ERC20/ERC20Upgradeable.sol\":3134:3148  return $._name */\n      dup1\n      sload\n      tag_61\n      swap1\n      tag_62\n      jump\t// in\n    tag_61:\n      dup1\n      0x1f\n      add\n      0x20\n      dup1\n      swap2\n      div\n      mul\n      0x20\n      add\n      mload(0x40)\n      swap1\n      dup2\n      add\n      0x40\n      mstore\n      dup1\n      swap3\n      swap2\n      swap1\n      dup2\n      dup2\n      mstore\n      0x20\n      add\n      dup3\n      dup1\n      sload\n      tag_63\n      swap1\n      tag_62\n      jump\t// in\n    tag_63:\n      dup1\n      iszero\n      tag_64\n      jumpi\n      dup1\n      0x1f\n      lt\n      tag_65\n      jumpi\n      0x0100\n      dup1\n      dup4\n      sload\n      div\n      mul\n      dup4\n      mstore\n      swap2\n      0x20\n      add\n      swap2\n      jump(tag_64)\n    tag_65:\n      dup3\n      add\n      swap2\n      swap1\n      0x00\n      mstore\n      keccak256(0x00, 0x20)\n      swap1\n    tag_66:\n      dup2\n      sload\n      dup2\n      mstore\n      swap1\n      0x01\n      add\n      swap1\n      0x20\n      add\n      dup1\n      dup4\n      gt\n      tag_66\n      jumpi\n      dup3\n      swap1\n      sub\n      0x1f\n      and\n      dup3\n      add\n      swap2\n    tag_64:\n      pop\n      pop\n      pop\n      pop\n      pop\n      swap2\n      pop\n      pop\n        /* \"@openzeppelin/contracts-upgradeable/token/ERC20/ERC20Upgradeable.sol\":3011:3155  function name() public view virtual returns (string memory) {... */\n      swap1\n      jump\t// out\n        /* \"@openzeppelin/contracts-upgradeable/token/ERC20/ERC20Upgradeable.sol\":5505:5691  function approve(address spender, uint256 value) public virtual returns (bool) {... */\n    tag_21:\n        /* \"@openzeppelin/contracts-upgradeable/token/ERC20/ERC20Upgradeable.sol\":5578:5582  bool */\n      0x00\n        /* \"@openzeppelin/contracts-upgradeable/token/ERC20/ERC20Upgradeable.sol\":5594:5607  address owner */\n      dup1\n        /* \"@openzeppelin/contracts-upgradeable/token/ERC20/ERC20Upgradeable.sol\":5610:5622  _msgSender() */\n      tag_68\n        /* \"@openzeppelin/contracts-upgradeable/token/ERC20/ERC20Upgradeable.sol\":5610:5620  _msgSender */\n      tag_69\n        /* \"@openzeppelin/contracts-upgradeable/token/ERC20/ERC20Upgradeable.sol\":5610:5622  _msgSender() */\n      jump\t// in\n    tag_68:\n        /* \"@openzeppelin/contracts-upgradeable/token/ERC20/ERC20Upgradeable.sol\":5594:5622  address owner = _msgSender() */\n      swap1\n      pop\n        /* \"@openzeppelin/contracts-upgradeable/token/ERC20/ERC20Upgradeable.sol\":5632:5663  _approve(owner, spender, value) */\n      tag_70\n        /* \"@openzeppelin/contracts-upgradeable/token/ERC20/ERC20Upgradeable.sol\":5641:5646  owner */\n      dup2\n        /* \"@openzeppelin/contracts-upgradeable/token/ERC20/ERC20Upgradeable.sol\":5648:5655  spender */\n      dup6\n        /* \"@openzeppelin/contracts-upgradeable/token/ERC20/ERC20Upgradeable.sol\":5657:5662  value */\n      dup6\n        /* \"@openzeppelin/contracts-upgradeable/token/ERC20/ERC20Upgradeable.sol\":5632:5640  _approve */\n      tag_71\n        /* \"@openzeppelin/contracts-upgradeable/token/ERC20/ERC20Upgradeable.sol\":5632:5663  _approve(owner, spender, value) */\n      jump\t// in\n    tag_70:\n        /* \"@openzeppelin/contracts-upgradeable/token/ERC20/ERC20Upgradeable.sol\":5680:5684  true */\n      0x01\n        /* \"@openzeppelin/contracts-upgradeable/token/ERC20/ERC20Upgradeable.sol\":5673:5684  return true */\n      swap2\n      pop\n      pop\n        /* \"@openzeppelin/contracts-upgradeable/token/ERC20/ERC20Upgradeable.sol\":5505:5691  function approve(address spender, uint256 value) public virtual returns (bool) {... */\n      swap3\n      swap2\n      pop\n      pop\n      jump\t// out\n        /* \"@openzeppelin/contracts-upgradeable/token/ERC20/ERC20Upgradeable.sol\":4191:4343  function totalSupply() public view virtual returns (uint256) {... */\n    tag_25:\n        /* \"@openzeppelin/contracts-upgradeable/token/ERC20/ERC20Upgradeable.sol\":4243:4250  uint256 */\n      0x00\n        /* \"@openzeppelin/contracts-upgradeable/token/ERC20/ERC20Upgradeable.sol\":4262:4284  ERC20Storage storage $ */\n      dup1\n        /* \"@openzeppelin/contracts-upgradeable/token/ERC20/ERC20Upgradeable.sol\":4287:4305  _getERC20Storage() */\n      tag_73\n        /* \"@openzeppelin/contracts-upgradeable/token/ERC20/ERC20Upgradeable.sol\":4287:4303  _getERC20Storage */\n      tag_60\n        /* \"@openzeppelin/contracts-upgradeable/token/ERC20/ERC20Upgradeable.sol\":4287:4305  _getERC20Storage() */\n      jump\t// in\n    tag_73:\n        /* \"@openzeppelin/contracts-upgradeable/token/ERC20/ERC20Upgradeable.sol\":4262:4305  ERC20Storage storage $ = _getERC20Storage() */\n      swap1\n      pop\n        /* \"@openzeppelin/contracts-upgradeable/token/ERC20/ERC20Upgradeable.sol\":4322:4323  $ */\n      dup1\n        /* \"@openzeppelin/contracts-upgradeable/token/ERC20/ERC20Upgradeable.sol\":4322:4336  $._totalSupply */\n      0x02\n      add\n      sload\n        /* \"@openzeppelin/contracts-upgradeable/token/ERC20/ERC20Upgradeable.sol\":4315:4336  return $._totalSupply */\n      swap2\n      pop\n      pop\n        /* \"@openzeppelin/contracts-upgradeable/token/ERC20/ERC20Upgradeable.sol\":4191:4343  function totalSupply() public view virtual returns (uint256) {... */\n      swap1\n      jump\t// out\n        /* \"src/MyERC20.sol\":439:854  function transferWithCallback(... */\n    tag_30:\n        /* \"src/MyERC20.sol\":544:548  bool */\n      0x00\n        /* \"src/MyERC20.sol\":560:600  _transfer(msg.sender, recipient, amount) */\n      tag_75\n        /* \"src/MyERC20.sol\":570:580  msg.sender */\n      caller\n        /* \"src/MyERC20.sol\":582:591  recipient */\n      dup5\n        /* \"src/MyERC20.sol\":593:599  amount */\n      dup5\n        /* \"src/MyERC20.sol\":560:569  _transfer */\n      tag_76\n        /* \"src/MyERC20.sol\":560:600  _transfer(msg.sender, recipient, amount) */\n      jump\t// in\n    tag_75:\n        /* \"src/MyERC20.sol\":615:637  recipient.isContract() */\n      tag_77\n        /* \"src/MyERC20.sol\":615:624  recipient */\n      dup4\n        /* \"src/MyERC20.sol\":615:635  recipient.isContract */\n      0xffffffffffffffffffffffffffffffffffffffff\n      and\n      tag_78\n        /* \"src/MyERC20.sol\":615:637  recipient.isContract() */\n      jump\t// in\n    tag_77:\n        /* \"src/MyERC20.sol\":611:826  if (recipient.isContract()) {... */\n      iszero\n      tag_79\n      jumpi\n        /* \"src/MyERC20.sol\":653:660  bool rv */\n      0x00\n        /* \"src/MyERC20.sol\":678:687  recipient */\n      dup4\n        /* \"src/MyERC20.sol\":663:703  TokenRecipient(recipient).tokensReceived */\n      0xffffffffffffffffffffffffffffffffffffffff\n      and\n      0x24a756d1\n        /* \"src/MyERC20.sol\":721:731  msg.sender */\n      caller\n        /* \"src/MyERC20.sol\":749:755  amount */\n      dup6\n        /* \"src/MyERC20.sol\":663:769  TokenRecipient(recipient).tokensReceived(... */\n      mload(0x40)\n      dup4\n      0xffffffff\n      and\n      0xe0\n      shl\n      dup2\n      mstore\n      0x04\n      add\n      tag_80\n      swap3\n      swap2\n      swap1\n      tag_81\n      jump\t// in\n    tag_80:\n      0x20\n      mload(0x40)\n      dup1\n      dup4\n      sub\n      dup2\n      0x00\n      dup8\n      gas\n      call\n      iszero\n      dup1\n      iszero\n      tag_83\n      jumpi\n      returndatasize\n      0x00\n      dup1\n      returndatacopy\n      revert(0x00, returndatasize)\n    tag_83:\n      pop\n      pop\n      pop\n      pop\n      mload(0x40)\n      returndatasize\n      not(0x1f)\n      0x1f\n      dup3\n      add\n      and\n      dup3\n      add\n      dup1\n      0x40\n      mstore\n      pop\n      dup2\n      add\n      swap1\n      tag_84\n      swap2\n      swap1\n      tag_85\n      jump\t// in\n    tag_84:\n        /* \"src/MyERC20.sol\":653:769  bool rv = TokenRecipient(recipient).tokensReceived(... */\n      swap1\n      pop\n        /* \"src/MyERC20.sol\":791:793  rv */\n      dup1\n        /* \"src/MyERC20.sol\":783:815  require(rv, \"No tokensReceived\") */\n      tag_86\n      jumpi\n      mload(0x40)\n      0x08c379a000000000000000000000000000000000000000000000000000000000\n      dup2\n      mstore\n      0x04\n      add\n      tag_87\n      swap1\n      tag_88\n      jump\t// in\n    tag_87:\n      mload(0x40)\n      dup1\n      swap2\n      sub\n      swap1\n      revert\n    tag_86:\n        /* \"src/MyERC20.sol\":639:826  {... */\n      pop\n        /* \"src/MyERC20.sol\":611:826  if (recipient.isContract()) {... */\n    tag_79:\n        /* \"src/MyERC20.sol\":843:847  true */\n      0x01\n        /* \"src/MyERC20.sol\":836:847  return true */\n      swap1\n      pop\n        /* \"src/MyERC20.sol\":439:854  function transferWithCallback(... */\n      swap3\n      swap2\n      pop\n      pop\n      jump\t// out\n        /* \"@openzeppelin/contracts-upgradeable/token/ERC20/ERC20Upgradeable.sol\":6251:6495  function transferFrom(address from, address to, uint256 value) public virtual returns (bool) {... */\n    tag_35:\n        /* \"@openzeppelin/contracts-upgradeable/token/ERC20/ERC20Upgradeable.sol\":6338:6342  bool */\n      0x00\n        /* \"@openzeppelin/contracts-upgradeable/token/ERC20/ERC20Upgradeable.sol\":6354:6369  address spender */\n      dup1\n        /* \"@openzeppelin/contracts-upgradeable/token/ERC20/ERC20Upgradeable.sol\":6372:6384  _msgSender() */\n      tag_90\n        /* \"@openzeppelin/contracts-upgradeable/token/ERC20/ERC20Upgradeable.sol\":6372:6382  _msgSender */\n      tag_69\n        /* \"@openzeppelin/contracts-upgradeable/token/ERC20/ERC20Upgradeable.sol\":6372:6384  _msgSender() */\n      jump\t// in\n    tag_90:\n        /* \"@openzeppelin/contracts-upgradeable/token/ERC20/ERC20Upgradeable.sol\":6354:6384  address spender = _msgSender() */\n      swap1\n      pop\n        /* \"@openzeppelin/contracts-upgradeable/token/ERC20/ERC20Upgradeable.sol\":6394:6431  _spendAllowance(from, spender, value) */\n      tag_91\n        /* \"@openzeppelin/contracts-upgradeable/token/ERC20/ERC20Upgradeable.sol\":6410:6414  from */\n      dup6\n        /* \"@openzeppelin/contracts-upgradeable/token/ERC20/ERC20Upgradeable.sol\":6416:6423  spender */\n      dup3\n        /* \"@openzeppelin/contracts-upgradeable/token/ERC20/ERC20Upgradeable.sol\":6425:6430  value */\n      dup6\n        /* \"@openzeppelin/contracts-upgradeable/token/ERC20/ERC20Upgradeable.sol\":6394:6409  _spendAllowance */\n      tag_92\n        /* \"@openzeppelin/contracts-upgradeable/token/ERC20/ERC20Upgradeable.sol\":6394:6431  _spendAllowance(from, spender, value) */\n      jump\t// in\n    tag_91:\n        /* \"@openzeppelin/contracts-upgradeable/token/ERC20/ERC20Upgradeable.sol\":6441:6467  _transfer(from, to, value) */\n      tag_93\n        /* \"@openzeppelin/contracts-upgradeable/token/ERC20/ERC20Upgradeable.sol\":6451:6455  from */\n      dup6\n        /* \"@openzeppelin/contracts-upgradeable/token/ERC20/ERC20Upgradeable.sol\":6457:6459  to */\n      dup6\n        /* \"@openzeppelin/contracts-upgradeable/token/ERC20/ERC20Upgradeable.sol\":6461:6466  value */\n      dup6\n        /* \"@openzeppelin/contracts-upgradeable/token/ERC20/ERC20Upgradeable.sol\":6441:6450  _transfer */\n      tag_76\n        /* \"@openzeppelin/contracts-upgradeable/token/ERC20/ERC20Upgradeable.sol\":6441:6467  _transfer(from, to, value) */\n      jump\t// in\n    tag_93:\n        /* \"@openzeppelin/contracts-upgradeable/token/ERC20/ERC20Upgradeable.sol\":6484:6488  true */\n      0x01\n        /* \"@openzeppelin/contracts-upgradeable/token/ERC20/ERC20Upgradeable.sol\":6477:6488  return true */\n      swap2\n      pop\n      pop\n        /* \"@openzeppelin/contracts-upgradeable/token/ERC20/ERC20Upgradeable.sol\":6251:6495  function transferFrom(address from, address to, uint256 value) public virtual returns (bool) {... */\n      swap4\n      swap3\n      pop\n      pop\n      pop\n      jump\t// out\n        /* \"@openzeppelin/contracts-upgradeable/token/ERC20/ERC20Upgradeable.sol\":4049:4131  function decimals() public view virtual returns (uint8) {... */\n    tag_38:\n        /* \"@openzeppelin/contracts-upgradeable/token/ERC20/ERC20Upgradeable.sol\":4098:4103  uint8 */\n      0x00\n        /* \"@openzeppelin/contracts-upgradeable/token/ERC20/ERC20Upgradeable.sol\":4122:4124  18 */\n      0x12\n        /* \"@openzeppelin/contracts-upgradeable/token/ERC20/ERC20Upgradeable.sol\":4115:4124  return 18 */\n      swap1\n      pop\n        /* \"@openzeppelin/contracts-upgradeable/token/ERC20/ERC20Upgradeable.sol\":4049:4131  function decimals() public view virtual returns (uint8) {... */\n      swap1\n      jump\t// out\n        /* \"@openzeppelin/contracts-upgradeable/token/ERC20/ERC20Upgradeable.sol\":4401:4572  function balanceOf(address account) public view virtual returns (uint256) {... */\n    tag_44:\n        /* \"@openzeppelin/contracts-upgradeable/token/ERC20/ERC20Upgradeable.sol\":4466:4473  uint256 */\n      0x00\n        /* \"@openzeppelin/contracts-upgradeable/token/ERC20/ERC20Upgradeable.sol\":4485:4507  ERC20Storage storage $ */\n      dup1\n        /* \"@openzeppelin/contracts-upgradeable/token/ERC20/ERC20Upgradeable.sol\":4510:4528  _getERC20Storage() */\n      tag_96\n        /* \"@openzeppelin/contracts-upgradeable/token/ERC20/ERC20Upgradeable.sol\":4510:4526  _getERC20Storage */\n      tag_60\n        /* \"@openzeppelin/contracts-upgradeable/token/ERC20/ERC20Upgradeable.sol\":4510:4528  _getERC20Storage() */\n      jump\t// in\n    tag_96:\n        /* \"@openzeppelin/contracts-upgradeable/token/ERC20/ERC20Upgradeable.sol\":4485:4528  ERC20Storage storage $ = _getERC20Storage() */\n      swap1\n      pop\n        /* \"@openzeppelin/contracts-upgradeable/token/ERC20/ERC20Upgradeable.sol\":4545:4546  $ */\n      dup1\n        /* \"@openzeppelin/contracts-upgradeable/token/ERC20/ERC20Upgradeable.sol\":4545:4556  $._balances */\n      0x00\n      add\n        /* \"@openzeppelin/contracts-upgradeable/token/ERC20/ERC20Upgradeable.sol\":4545:4565  $._balances[account] */\n      0x00\n        /* \"@openzeppelin/contracts-upgradeable/token/ERC20/ERC20Upgradeable.sol\":4557:4564  account */\n      dup5\n        /* \"@openzeppelin/contracts-upgradeable/token/ERC20/ERC20Upgradeable.sol\":4545:4565  $._balances[account] */\n      0xffffffffffffffffffffffffffffffffffffffff\n      and\n      0xffffffffffffffffffffffffffffffffffffffff\n      and\n      dup2\n      mstore\n      0x20\n      add\n      swap1\n      dup2\n      mstore\n      0x20\n      add\n      0x00\n      keccak256\n      sload\n        /* \"@openzeppelin/contracts-upgradeable/token/ERC20/ERC20Upgradeable.sol\":4538:4565  return $._balances[account] */\n      swap2\n      pop\n      pop\n        /* \"@openzeppelin/contracts-upgradeable/token/ERC20/ERC20Upgradeable.sol\":4401:4572  function balanceOf(address account) public view virtual returns (uint256) {... */\n      swap2\n      swap1\n      pop\n      jump\t// out\n        /* \"@openzeppelin/contracts-upgradeable/token/ERC20/ERC20Upgradeable.sol\":3268:3416  function symbol() public view virtual returns (string memory) {... */\n    tag_47:\n        /* \"@openzeppelin/contracts-upgradeable/token/ERC20/ERC20Upgradeable.sol\":3315:3328  string memory */\n      0x60\n        /* \"@openzeppelin/contracts-upgradeable/token/ERC20/ERC20Upgradeable.sol\":3340:3362  ERC20Storage storage $ */\n      0x00\n        /* \"@openzeppelin/contracts-upgradeable/token/ERC20/ERC20Upgradeable.sol\":3365:3383  _getERC20Storage() */\n      tag_98\n        /* \"@openzeppelin/contracts-upgradeable/token/ERC20/ERC20Upgradeable.sol\":3365:3381  _getERC20Storage */\n      tag_60\n        /* \"@openzeppelin/contracts-upgradeable/token/ERC20/ERC20Upgradeable.sol\":3365:3383  _getERC20Storage() */\n      jump\t// in\n    tag_98:\n        /* \"@openzeppelin/contracts-upgradeable/token/ERC20/ERC20Upgradeable.sol\":3340:3383  ERC20Storage storage $ = _getERC20Storage() */\n      swap1\n      pop\n        /* \"@openzeppelin/contracts-upgradeable/token/ERC20/ERC20Upgradeable.sol\":3400:3401  $ */\n      dup1\n        /* \"@openzeppelin/contracts-upgradeable/token/ERC20/ERC20Upgradeable.sol\":3400:3409  $._symbol */\n      0x04\n      add\n        /* \"@openzeppelin/contracts-upgradeable/token/ERC20/ERC20Upgradeable.sol\":3393:3409  return $._symbol */\n      dup1\n      sload\n      tag_99\n      swap1\n      tag_62\n      jump\t// in\n    tag_99:\n      dup1\n      0x1f\n      add\n      0x20\n      dup1\n      swap2\n      div\n      mul\n      0x20\n      add\n      mload(0x40)\n      swap1\n      dup2\n      add\n      0x40\n      mstore\n      dup1\n      swap3\n      swap2\n      swap1\n      dup2\n      dup2\n      mstore\n      0x20\n      add\n      dup3\n      dup1\n      sload\n      tag_100\n      swap1\n      tag_62\n      jump\t// in\n    tag_100:\n      dup1\n      iszero\n      tag_101\n      jumpi\n      dup1\n      0x1f\n      lt\n      tag_102\n      jumpi\n      0x0100\n      dup1\n      dup4\n      sload\n      div\n      mul\n      dup4\n      mstore\n      swap2\n      0x20\n      add\n      swap2\n      jump(tag_101)\n    tag_102:\n      dup3\n      add\n      swap2\n      swap1\n      0x00\n      mstore\n      keccak256(0x00, 0x20)\n      swap1\n    tag_103:\n      dup2\n      sload\n      dup2\n      mstore\n      swap1\n      0x01\n      add\n      swap1\n      0x20\n      add\n      dup1\n      dup4\n      gt\n      tag_103\n      jumpi\n      dup3\n      swap1\n      sub\n      0x1f\n      and\n      dup3\n      add\n      swap2\n    tag_101:\n      pop\n      pop\n      pop\n      pop\n      pop\n      swap2\n      pop\n      pop\n        /* \"@openzeppelin/contracts-upgradeable/token/ERC20/ERC20Upgradeable.sol\":3268:3416  function symbol() public view virtual returns (string memory) {... */\n      swap1\n      jump\t// out\n        /* \"@openzeppelin/contracts-upgradeable/token/ERC20/ERC20Upgradeable.sol\":4767:4945  function transfer(address to, uint256 value) public virtual returns (bool) {... */\n    tag_51:\n        /* \"@openzeppelin/contracts-upgradeable/token/ERC20/ERC20Upgradeable.sol\":4836:4840  bool */\n      0x00\n        /* \"@openzeppelin/contracts-upgradeable/token/ERC20/ERC20Upgradeable.sol\":4852:4865  address owner */\n      dup1\n        /* \"@openzeppelin/contracts-upgradeable/token/ERC20/ERC20Upgradeable.sol\":4868:4880  _msgSender() */\n      tag_105\n        /* \"@openzeppelin/contracts-upgradeable/token/ERC20/ERC20Upgradeable.sol\":4868:4878  _msgSender */\n      tag_69\n        /* \"@openzeppelin/contracts-upgradeable/token/ERC20/ERC20Upgradeable.sol\":4868:4880  _msgSender() */\n      jump\t// in\n    tag_105:\n        /* \"@openzeppelin/contracts-upgradeable/token/ERC20/ERC20Upgradeable.sol\":4852:4880  address owner = _msgSender() */\n      swap1\n      pop\n        /* \"@openzeppelin/contracts-upgradeable/token/ERC20/ERC20Upgradeable.sol\":4890:4917  _transfer(owner, to, value) */\n      tag_106\n        /* \"@openzeppelin/contracts-upgradeable/token/ERC20/ERC20Upgradeable.sol\":4900:4905  owner */\n      dup2\n        /* \"@openzeppelin/contracts-upgradeable/token/ERC20/ERC20Upgradeable.sol\":4907:4909  to */\n      dup6\n        /* \"@openzeppelin/contracts-upgradeable/token/ERC20/ERC20Upgradeable.sol\":4911:4916  value */\n      dup6\n        /* \"@openzeppelin/contracts-upgradeable/token/ERC20/ERC20Upgradeable.sol\":4890:4899  _transfer */\n      tag_76\n        /* \"@openzeppelin/contracts-upgradeable/token/ERC20/ERC20Upgradeable.sol\":4890:4917  _transfer(owner, to, value) */\n      jump\t// in\n    tag_106:\n        /* \"@openzeppelin/contracts-upgradeable/token/ERC20/ERC20Upgradeable.sol\":4934:4938  true */\n      0x01\n        /* \"@openzeppelin/contracts-upgradeable/token/ERC20/ERC20Upgradeable.sol\":4927:4938  return true */\n      swap2\n      pop\n      pop\n        /* \"@openzeppelin/contracts-upgradeable/token/ERC20/ERC20Upgradeable.sol\":4767:4945  function transfer(address to, uint256 value) public virtual returns (bool) {... */\n      swap3\n      swap2\n      pop\n      pop\n      jump\t// out\n        /* \"@openzeppelin/contracts-upgradeable/token/ERC20/ERC20Upgradeable.sol\":5003:5198  function allowance(address owner, address spender) public view virtual returns (uint256) {... */\n    tag_56:\n        /* \"@openzeppelin/contracts-upgradeable/token/ERC20/ERC20Upgradeable.sol\":5083:5090  uint256 */\n      0x00\n        /* \"@openzeppelin/contracts-upgradeable/token/ERC20/ERC20Upgradeable.sol\":5102:5124  ERC20Storage storage $ */\n      dup1\n        /* \"@openzeppelin/contracts-upgradeable/token/ERC20/ERC20Upgradeable.sol\":5127:5145  _getERC20Storage() */\n      tag_108\n        /* \"@openzeppelin/contracts-upgradeable/token/ERC20/ERC20Upgradeable.sol\":5127:5143  _getERC20Storage */\n      tag_60\n        /* \"@openzeppelin/contracts-upgradeable/token/ERC20/ERC20Upgradeable.sol\":5127:5145  _getERC20Storage() */\n      jump\t// in\n    tag_108:\n        /* \"@openzeppelin/contracts-upgradeable/token/ERC20/ERC20Upgradeable.sol\":5102:5145  ERC20Storage storage $ = _getERC20Storage() */\n      swap1\n      pop\n        /* \"@openzeppelin/contracts-upgradeable/token/ERC20/ERC20Upgradeable.sol\":5162:5163  $ */\n      dup1\n        /* \"@openzeppelin/contracts-upgradeable/token/ERC20/ERC20Upgradeable.sol\":5162:5175  $._allowances */\n      0x01\n      add\n        /* \"@openzeppelin/contracts-upgradeable/token/ERC20/ERC20Upgradeable.sol\":5162:5182  $._allowances[owner] */\n      0x00\n        /* \"@openzeppelin/contracts-upgradeable/token/ERC20/ERC20Upgradeable.sol\":5176:5181  owner */\n      dup6\n        /* \"@openzeppelin/contracts-upgradeable/token/ERC20/ERC20Upgradeable.sol\":5162:5182  $._allowances[owner] */\n      0xffffffffffffffffffffffffffffffffffffffff\n      and\n      0xffffffffffffffffffffffffffffffffffffffff\n      and\n      dup2\n      mstore\n      0x20\n      add\n      swap1\n      dup2\n      mstore\n      0x20\n      add\n      0x00\n      keccak256\n        /* \"@openzeppelin/contracts-upgradeable/token/ERC20/ERC20Upgradeable.sol\":5162:5191  $._allowances[owner][spender] */\n      0x00\n        /* \"@openzeppelin/contracts-upgradeable/token/ERC20/ERC20Upgradeable.sol\":5183:5190  spender */\n      dup5\n        /* \"@openzeppelin/contracts-upgradeable/token/ERC20/ERC20Upgradeable.sol\":5162:5191  $._allowances[owner][spender] */\n      0xffffffffffffffffffffffffffffffffffffffff\n      and\n      0xffffffffffffffffffffffffffffffffffffffff\n      and\n      dup2\n      mstore\n      0x20\n      add\n      swap1\n      dup2\n      mstore\n      0x20\n      add\n      0x00\n      keccak256\n      sload\n        /* \"@openzeppelin/contracts-upgradeable/token/ERC20/ERC20Upgradeable.sol\":5155:5191  return $._allowances[owner][spender] */\n      swap2\n      pop\n      pop\n        /* \"@openzeppelin/contracts-upgradeable/token/ERC20/ERC20Upgradeable.sol\":5003:5198  function allowance(address owner, address spender) public view virtual returns (uint256) {... */\n      swap3\n      swap2\n      pop\n      pop\n      jump\t// out\n        /* \"@openzeppelin/contracts-upgradeable/token/ERC20/ERC20Upgradeable.sol\":2242:2395  function _getERC20Storage() private pure returns (ERC20Storage storage $) {... */\n    tag_60:\n        /* \"@openzeppelin/contracts-upgradeable/token/ERC20/ERC20Upgradeable.sol\":2292:2314  ERC20Storage storage $ */\n      0x00\n        /* \"@openzeppelin/contracts-upgradeable/token/ERC20/ERC20Upgradeable.sol\":2359:2379  ERC20StorageLocation */\n      0x52c63247e1f47db19d5ce0460030c497f067ca4cebf71ba98eeadabe20bace00\n        /* \"@openzeppelin/contracts-upgradeable/token/ERC20/ERC20Upgradeable.sol\":2349:2379  $.slot := ERC20StorageLocation */\n      swap1\n      pop\n        /* \"@openzeppelin/contracts-upgradeable/token/ERC20/ERC20Upgradeable.sol\":2242:2395  function _getERC20Storage() private pure returns (ERC20Storage storage $) {... */\n      swap1\n      jump\t// out\n        /* \"@openzeppelin/contracts-upgradeable/utils/ContextUpgradeable.sol\":887:983  function _msgSender() internal view virtual returns (address) {... */\n    tag_69:\n        /* \"@openzeppelin/contracts-upgradeable/utils/ContextUpgradeable.sol\":940:947  address */\n      0x00\n        /* \"@openzeppelin/contracts-upgradeable/utils/ContextUpgradeable.sol\":966:976  msg.sender */\n      caller\n        /* \"@openzeppelin/contracts-upgradeable/utils/ContextUpgradeable.sol\":959:976  return msg.sender */\n      swap1\n      pop\n        /* \"@openzeppelin/contracts-upgradeable/utils/ContextUpgradeable.sol\":887:983  function _msgSender() internal view virtual returns (address) {... */\n      swap1\n      jump\t// out\n        /* \"@openzeppelin/contracts-upgradeable/token/ERC20/ERC20Upgradeable.sol\":10264:10392  function _approve(address owner, address spender, uint256 value) internal {... */\n    tag_71:\n        /* \"@openzeppelin/contracts-upgradeable/token/ERC20/ERC20Upgradeable.sol\":10348:10385  _approve(owner, spender, value, true) */\n      tag_112\n        /* \"@openzeppelin/contracts-upgradeable/token/ERC20/ERC20Upgradeable.sol\":10357:10362  owner */\n      dup4\n        /* \"@openzeppelin/contracts-upgradeable/token/ERC20/ERC20Upgradeable.sol\":10364:10371  spender */\n      dup4\n        /* \"@openzeppelin/contracts-upgradeable/token/ERC20/ERC20Upgradeable.sol\":10373:10378  value */\n      dup4\n        /* \"@openzeppelin/contracts-upgradeable/token/ERC20/ERC20Upgradeable.sol\":10380:10384  true */\n      0x01\n        /* \"@openzeppelin/contracts-upgradeable/token/ERC20/ERC20Upgradeable.sol\":10348:10356  _approve */\n      tag_113\n        /* \"@openzeppelin/contracts-upgradeable/token/ERC20/ERC20Upgradeable.sol\":10348:10385  _approve(owner, spender, value, true) */\n      jump\t// in\n    tag_112:\n        /* \"@openzeppelin/contracts-upgradeable/token/ERC20/ERC20Upgradeable.sol\":10264:10392  function _approve(address owner, address spender, uint256 value) internal {... */\n      pop\n      pop\n      pop\n      jump\t// out\n        /* \"@openzeppelin/contracts-upgradeable/token/ERC20/ERC20Upgradeable.sol\":6868:7168  function _transfer(address from, address to, uint256 value) internal {... */\n    tag_76:\n        /* \"@openzeppelin/contracts-upgradeable/token/ERC20/ERC20Upgradeable.sol\":6967:6968  0 */\n      0x00\n        /* \"@openzeppelin/contracts-upgradeable/token/ERC20/ERC20Upgradeable.sol\":6951:6969  from == address(0) */\n      0xffffffffffffffffffffffffffffffffffffffff\n      and\n        /* \"@openzeppelin/contracts-upgradeable/token/ERC20/ERC20Upgradeable.sol\":6951:6955  from */\n      dup4\n        /* \"@openzeppelin/contracts-upgradeable/token/ERC20/ERC20Upgradeable.sol\":6951:6969  from == address(0) */\n      0xffffffffffffffffffffffffffffffffffffffff\n      and\n      sub\n        /* \"@openzeppelin/contracts-upgradeable/token/ERC20/ERC20Upgradeable.sol\":6947:7033  if (from == address(0)) {... */\n      tag_115\n      jumpi\n        /* \"@openzeppelin/contracts-upgradeable/token/ERC20/ERC20Upgradeable.sol\":7019:7020  0 */\n      0x00\n        /* \"@openzeppelin/contracts-upgradeable/token/ERC20/ERC20Upgradeable.sol\":6992:7022  ERC20InvalidSender(address(0)) */\n      mload(0x40)\n      0x96c6fd1e00000000000000000000000000000000000000000000000000000000\n      dup2\n      mstore\n      0x04\n      add\n      tag_116\n      swap2\n      swap1\n      tag_117\n      jump\t// in\n    tag_116:\n      mload(0x40)\n      dup1\n      swap2\n      sub\n      swap1\n      revert\n        /* \"@openzeppelin/contracts-upgradeable/token/ERC20/ERC20Upgradeable.sol\":6947:7033  if (from == address(0)) {... */\n    tag_115:\n        /* \"@openzeppelin/contracts-upgradeable/token/ERC20/ERC20Upgradeable.sol\":7060:7061  0 */\n      0x00\n        /* \"@openzeppelin/contracts-upgradeable/token/ERC20/ERC20Upgradeable.sol\":7046:7062  to == address(0) */\n      0xffffffffffffffffffffffffffffffffffffffff\n      and\n        /* \"@openzeppelin/contracts-upgradeable/token/ERC20/ERC20Upgradeable.sol\":7046:7048  to */\n      dup3\n        /* \"@openzeppelin/contracts-upgradeable/token/ERC20/ERC20Upgradeable.sol\":7046:7062  to == address(0) */\n      0xffffffffffffffffffffffffffffffffffffffff\n      and\n      sub\n        /* \"@openzeppelin/contracts-upgradeable/token/ERC20/ERC20Upgradeable.sol\":7042:7128  if (to == address(0)) {... */\n      tag_118\n      jumpi\n        /* \"@openzeppelin/contracts-upgradeable/token/ERC20/ERC20Upgradeable.sol\":7114:7115  0 */\n      0x00\n        /* \"@openzeppelin/contracts-upgradeable/token/ERC20/ERC20Upgradeable.sol\":7085:7117  ERC20InvalidReceiver(address(0)) */\n      mload(0x40)\n      0xec442f0500000000000000000000000000000000000000000000000000000000\n      dup2\n      mstore\n      0x04\n      add\n      tag_119\n      swap2\n      swap1\n      tag_117\n      jump\t// in\n    tag_119:\n      mload(0x40)\n      dup1\n      swap2\n      sub\n      swap1\n      revert\n        /* \"@openzeppelin/contracts-upgradeable/token/ERC20/ERC20Upgradeable.sol\":7042:7128  if (to == address(0)) {... */\n    tag_118:\n        /* \"@openzeppelin/contracts-upgradeable/token/ERC20/ERC20Upgradeable.sol\":7137:7161  _update(from, to, value) */\n      tag_120\n        /* \"@openzeppelin/contracts-upgradeable/token/ERC20/ERC20Upgradeable.sol\":7145:7149  from */\n      dup4\n        /* \"@openzeppelin/contracts-upgradeable/token/ERC20/ERC20Upgradeable.sol\":7151:7153  to */\n      dup4\n        /* \"@openzeppelin/contracts-upgradeable/token/ERC20/ERC20Upgradeable.sol\":7155:7160  value */\n      dup4\n        /* \"@openzeppelin/contracts-upgradeable/token/ERC20/ERC20Upgradeable.sol\":7137:7144  _update */\n      tag_121\n        /* \"@openzeppelin/contracts-upgradeable/token/ERC20/ERC20Upgradeable.sol\":7137:7161  _update(from, to, value) */\n      jump\t// in\n    tag_120:\n        /* \"@openzeppelin/contracts-upgradeable/token/ERC20/ERC20Upgradeable.sol\":6868:7168  function _transfer(address from, address to, uint256 value) internal {... */\n      pop\n      pop\n      pop\n      jump\t// out\n        /* \"@openzeppelin/contracts-upgradeable/utils/AddressUpgradeable.sol\":1423:1743  function isContract(address account) internal view returns (bool) {... */\n    tag_78:\n        /* \"@openzeppelin/contracts-upgradeable/utils/AddressUpgradeable.sol\":1483:1487  bool */\n      0x00\n        /* \"@openzeppelin/contracts-upgradeable/utils/AddressUpgradeable.sol\":1735:1736  0 */\n      dup1\n        /* \"@openzeppelin/contracts-upgradeable/utils/AddressUpgradeable.sol\":1713:1720  account */\n      dup3\n        /* \"@openzeppelin/contracts-upgradeable/utils/AddressUpgradeable.sol\":1713:1732  account.code.length */\n      0xffffffffffffffffffffffffffffffffffffffff\n      and\n      extcodesize\n        /* \"@openzeppelin/contracts-upgradeable/utils/AddressUpgradeable.sol\":1713:1736  account.code.length > 0 */\n      gt\n        /* \"@openzeppelin/contracts-upgradeable/utils/AddressUpgradeable.sol\":1706:1736  return account.code.length > 0 */\n      swap1\n      pop\n        /* \"@openzeppelin/contracts-upgradeable/utils/AddressUpgradeable.sol\":1423:1743  function isContract(address account) internal view returns (bool) {... */\n      swap2\n      swap1\n      pop\n      jump\t// out\n        /* \"@openzeppelin/contracts-upgradeable/token/ERC20/ERC20Upgradeable.sol\":11993:12470  function _spendAllowance(address owner, address spender, uint256 value) internal virtual {... */\n    tag_92:\n        /* \"@openzeppelin/contracts-upgradeable/token/ERC20/ERC20Upgradeable.sol\":12092:12116  uint256 currentAllowance */\n      0x00\n        /* \"@openzeppelin/contracts-upgradeable/token/ERC20/ERC20Upgradeable.sol\":12119:12144  allowance(owner, spender) */\n      tag_124\n        /* \"@openzeppelin/contracts-upgradeable/token/ERC20/ERC20Upgradeable.sol\":12129:12134  owner */\n      dup5\n        /* \"@openzeppelin/contracts-upgradeable/token/ERC20/ERC20Upgradeable.sol\":12136:12143  spender */\n      dup5\n        /* \"@openzeppelin/contracts-upgradeable/token/ERC20/ERC20Upgradeable.sol\":12119:12128  allowance */\n      tag_56\n        /* \"@openzeppelin/contracts-upgradeable/token/ERC20/ERC20Upgradeable.sol\":12119:12144  allowance(owner, spender) */\n      jump\t// in\n    tag_124:\n        /* \"@openzeppelin/contracts-upgradeable/token/ERC20/ERC20Upgradeable.sol\":12092:12144  uint256 currentAllowance = allowance(owner, spender) */\n      swap1\n      pop\n        /* \"@openzeppelin/contracts-upgradeable/token/ERC20/ERC20Upgradeable.sol\":12178:12195  type(uint256).max */\n      0xffffffffffffffffffffffffffffffffffffffffffffffffffffffffffffffff\n        /* \"@openzeppelin/contracts-upgradeable/token/ERC20/ERC20Upgradeable.sol\":12158:12174  currentAllowance */\n      dup2\n        /* \"@openzeppelin/contracts-upgradeable/token/ERC20/ERC20Upgradeable.sol\":12158:12195  currentAllowance != type(uint256).max */\n      eq\n        /* \"@openzeppelin/contracts-upgradeable/token/ERC20/ERC20Upgradeable.sol\":12154:12464  if (currentAllowance != type(uint256).max) {... */\n      tag_125\n      jumpi\n        /* \"@openzeppelin/contracts-upgradeable/token/ERC20/ERC20Upgradeable.sol\":12234:12239  value */\n      dup2\n        /* \"@openzeppelin/contracts-upgradeable/token/ERC20/ERC20Upgradeable.sol\":12215:12231  currentAllowance */\n      dup2\n        /* \"@openzeppelin/contracts-upgradeable/token/ERC20/ERC20Upgradeable.sol\":12215:12239  currentAllowance < value */\n      lt\n        /* \"@openzeppelin/contracts-upgradeable/token/ERC20/ERC20Upgradeable.sol\":12211:12341  if (currentAllowance < value) {... */\n      iszero\n      tag_126\n      jumpi\n        /* \"@openzeppelin/contracts-upgradeable/token/ERC20/ERC20Upgradeable.sol\":12293:12300  spender */\n      dup3\n        /* \"@openzeppelin/contracts-upgradeable/token/ERC20/ERC20Upgradeable.sol\":12302:12318  currentAllowance */\n      dup2\n        /* \"@openzeppelin/contracts-upgradeable/token/ERC20/ERC20Upgradeable.sol\":12320:12325  value */\n      dup4\n        /* \"@openzeppelin/contracts-upgradeable/token/ERC20/ERC20Upgradeable.sol\":12266:12326  ERC20InsufficientAllowance(spender, currentAllowance, value) */\n      mload(0x40)\n      0xfb8f41b200000000000000000000000000000000000000000000000000000000\n      dup2\n      mstore\n      0x04\n      add\n      tag_127\n      swap4\n      swap3\n      swap2\n      swap1\n      tag_128\n      jump\t// in\n    tag_127:\n      mload(0x40)\n      dup1\n      swap2\n      sub\n      swap1\n      revert\n        /* \"@openzeppelin/contracts-upgradeable/token/ERC20/ERC20Upgradeable.sol\":12211:12341  if (currentAllowance < value) {... */\n    tag_126:\n        /* \"@openzeppelin/contracts-upgradeable/token/ERC20/ERC20Upgradeable.sol\":12382:12439  _approve(owner, spender, currentAllowance - value, false) */\n      tag_129\n        /* \"@openzeppelin/contracts-upgradeable/token/ERC20/ERC20Upgradeable.sol\":12391:12396  owner */\n      dup5\n        /* \"@openzeppelin/contracts-upgradeable/token/ERC20/ERC20Upgradeable.sol\":12398:12405  spender */\n      dup5\n        /* \"@openzeppelin/contracts-upgradeable/token/ERC20/ERC20Upgradeable.sol\":12426:12431  value */\n      dup5\n        /* \"@openzeppelin/contracts-upgradeable/token/ERC20/ERC20Upgradeable.sol\":12407:12423  currentAllowance */\n      dup5\n        /* \"@openzeppelin/contracts-upgradeable/token/ERC20/ERC20Upgradeable.sol\":12407:12431  currentAllowance - value */\n      sub\n        /* \"@openzeppelin/contracts-upgradeable/token/ERC20/ERC20Upgradeable.sol\":12433:12438  false */\n      0x00\n        /* \"@openzeppelin/contracts-upgradeable/token/ERC20/ERC20Upgradeable.sol\":12382:12390  _approve */\n      tag_113\n        /* \"@openzeppelin/contracts-upgradeable/token/ERC20/ERC20Upgradeable.sol\":12382:12439  _approve(owner, spender, currentAllowance - value, false) */\n      jump\t// in\n    tag_129:\n        /* \"@openzeppelin/contracts-upgradeable/token/ERC20/ERC20Upgradeable.sol\":12154:12464  if (currentAllowance != type(uint256).max) {... */\n    tag_125:\n        /* \"@openzeppelin/contracts-upgradeable/token/ERC20/ERC20Upgradeable.sol\":12082:12470  {... */\n      pop\n        /* \"@openzeppelin/contracts-upgradeable/token/ERC20/ERC20Upgradeable.sol\":11993:12470  function _spendAllowance(address owner, address spender, uint256 value) internal virtual {... */\n      pop\n      pop\n      pop\n      jump\t// out\n        /* \"@openzeppelin/contracts-upgradeable/token/ERC20/ERC20Upgradeable.sol\":11224:11711  function _approve(address owner, address spender, uint256 value, bool emitEvent) internal virtual {... */\n    tag_113:\n        /* \"@openzeppelin/contracts-upgradeable/token/ERC20/ERC20Upgradeable.sol\":11332:11354  ERC20Storage storage $ */\n      0x00\n        /* \"@openzeppelin/contracts-upgradeable/token/ERC20/ERC20Upgradeable.sol\":11357:11375  _getERC20Storage() */\n      tag_131\n        /* \"@openzeppelin/contracts-upgradeable/token/ERC20/ERC20Upgradeable.sol\":11357:11373  _getERC20Storage */\n      tag_60\n        /* \"@openzeppelin/contracts-upgradeable/token/ERC20/ERC20Upgradeable.sol\":11357:11375  _getERC20Storage() */\n      jump\t// in\n    tag_131:\n        /* \"@openzeppelin/contracts-upgradeable/token/ERC20/ERC20Upgradeable.sol\":11332:11375  ERC20Storage storage $ = _getERC20Storage() */\n      swap1\n      pop\n        /* \"@openzeppelin/contracts-upgradeable/token/ERC20/ERC20Upgradeable.sol\":11406:11407  0 */\n      0x00\n        /* \"@openzeppelin/contracts-upgradeable/token/ERC20/ERC20Upgradeable.sol\":11389:11408  owner == address(0) */\n      0xffffffffffffffffffffffffffffffffffffffff\n      and\n        /* \"@openzeppelin/contracts-upgradeable/token/ERC20/ERC20Upgradeable.sol\":11389:11394  owner */\n      dup6\n        /* \"@openzeppelin/contracts-upgradeable/token/ERC20/ERC20Upgradeable.sol\":11389:11408  owner == address(0) */\n      0xffffffffffffffffffffffffffffffffffffffff\n      and\n      sub\n        /* \"@openzeppelin/contracts-upgradeable/token/ERC20/ERC20Upgradeable.sol\":11385:11474  if (owner == address(0)) {... */\n      tag_132\n      jumpi\n        /* \"@openzeppelin/contracts-upgradeable/token/ERC20/ERC20Upgradeable.sol\":11460:11461  0 */\n      0x00\n        /* \"@openzeppelin/contracts-upgradeable/token/ERC20/ERC20Upgradeable.sol\":11431:11463  ERC20InvalidApprover(address(0)) */\n      mload(0x40)\n      0xe602df0500000000000000000000000000000000000000000000000000000000\n      dup2\n      mstore\n      0x04\n      add\n      tag_133\n      swap2\n      swap1\n      tag_117\n      jump\t// in\n    tag_133:\n      mload(0x40)\n      dup1\n      swap2\n      sub\n      swap1\n      revert\n        /* \"@openzeppelin/contracts-upgradeable/token/ERC20/ERC20Upgradeable.sol\":11385:11474  if (owner == address(0)) {... */\n    tag_132:\n        /* \"@openzeppelin/contracts-upgradeable/token/ERC20/ERC20Upgradeable.sol\":11506:11507  0 */\n      0x00\n        /* \"@openzeppelin/contracts-upgradeable/token/ERC20/ERC20Upgradeable.sol\":11487:11508  spender == address(0) */\n      0xffffffffffffffffffffffffffffffffffffffff\n      and\n        /* \"@openzeppelin/contracts-upgradeable/token/ERC20/ERC20Upgradeable.sol\":11487:11494  spender */\n      dup5\n        /* \"@openzeppelin/contracts-upgradeable/token/ERC20/ERC20Upgradeable.sol\":11487:11508  spender == address(0) */\n      0xffffffffffffffffffffffffffffffffffffffff\n      and\n      sub\n        /* \"@openzeppelin/contracts-upgradeable/token/ERC20/ERC20Upgradeable.sol\":11483:11573  if (spender == address(0)) {... */\n      tag_134\n      jumpi\n        /* \"@openzeppelin/contracts-upgradeable/token/ERC20/ERC20Upgradeable.sol\":11559:11560  0 */\n      0x00\n        /* \"@openzeppelin/contracts-upgradeable/token/ERC20/ERC20Upgradeable.sol\":11531:11562  ERC20InvalidSpender(address(0)) */\n      mload(0x40)\n      0x94280d6200000000000000000000000000000000000000000000000000000000\n      dup2\n      mstore\n      0x04\n      add\n      tag_135\n      swap2\n      swap1\n      tag_117\n      jump\t// in\n    tag_135:\n      mload(0x40)\n      dup1\n      swap2\n      sub\n      swap1\n      revert\n        /* \"@openzeppelin/contracts-upgradeable/token/ERC20/ERC20Upgradeable.sol\":11483:11573  if (spender == address(0)) {... */\n    tag_134:\n        /* \"@openzeppelin/contracts-upgradeable/token/ERC20/ERC20Upgradeable.sol\":11614:11619  value */\n      dup3\n        /* \"@openzeppelin/contracts-upgradeable/token/ERC20/ERC20Upgradeable.sol\":11582:11583  $ */\n      dup2\n        /* \"@openzeppelin/contracts-upgradeable/token/ERC20/ERC20Upgradeable.sol\":11582:11595  $._allowances */\n      0x01\n      add\n        /* \"@openzeppelin/contracts-upgradeable/token/ERC20/ERC20Upgradeable.sol\":11582:11602  $._allowances[owner] */\n      0x00\n        /* \"@openzeppelin/contracts-upgradeable/token/ERC20/ERC20Upgradeable.sol\":11596:11601  owner */\n      dup8\n        /* \"@openzeppelin/contracts-upgradeable/token/ERC20/ERC20Upgradeable.sol\":11582:11602  $._allowances[owner] */\n      0xffffffffffffffffffffffffffffffffffffffff\n      and\n      0xffffffffffffffffffffffffffffffffffffffff\n      and\n      dup2\n      mstore\n      0x20\n      add\n      swap1\n      dup2\n      mstore\n      0x20\n      add\n      0x00\n      keccak256\n        /* \"@openzeppelin/contracts-upgradeable/token/ERC20/ERC20Upgradeable.sol\":11582:11611  $._allowances[owner][spender] */\n      0x00\n        /* \"@openzeppelin/contracts-upgradeable/token/ERC20/ERC20Upgradeable.sol\":11603:11610  spender */\n      dup7\n        /* \"@openzeppelin/contracts-upgradeable/token/ERC20/ERC20Upgradeable.sol\":11582:11611  $._allowances[owner][spender] */\n      0xffffffffffffffffffffffffffffffffffffffff\n      and\n      0xffffffffffffffffffffffffffffffffffffffff\n      and\n      dup2\n      mstore\n      0x20\n      add\n      swap1\n      dup2\n      mstore\n      0x20\n      add\n      0x00\n      keccak256\n        /* \"@openzeppelin/contracts-upgradeable/token/ERC20/ERC20Upgradeable.sol\":11582:11619  $._allowances[owner][spender] = value */\n      dup2\n      swap1\n      sstore\n      pop\n        /* \"@openzeppelin/contracts-upgradeable/token/ERC20/ERC20Upgradeable.sol\":11633:11642  emitEvent */\n      dup2\n        /* \"@openzeppelin/contracts-upgradeable/token/ERC20/ERC20Upgradeable.sol\":11629:11705  if (emitEvent) {... */\n      iszero\n      tag_136\n      jumpi\n        /* \"@openzeppelin/contracts-upgradeable/token/ERC20/ERC20Upgradeable.sol\":11679:11686  spender */\n      dup4\n        /* \"@openzeppelin/contracts-upgradeable/token/ERC20/ERC20Upgradeable.sol\":11663:11694  Approval(owner, spender, value) */\n      0xffffffffffffffffffffffffffffffffffffffff\n      and\n        /* \"@openzeppelin/contracts-upgradeable/token/ERC20/ERC20Upgradeable.sol\":11672:11677  owner */\n      dup6\n        /* \"@openzeppelin/contracts-upgradeable/token/ERC20/ERC20Upgradeable.sol\":11663:11694  Approval(owner, spender, value) */\n      0xffffffffffffffffffffffffffffffffffffffff\n      and\n      0x8c5be1e5ebec7d5bd14f71427d1e84f3dd0314c0f7b2291e5b200ac8c7c3b925\n        /* \"@openzeppelin/contracts-upgradeable/token/ERC20/ERC20Upgradeable.sol\":11688:11693  value */\n      dup6\n        /* \"@openzeppelin/contracts-upgradeable/token/ERC20/ERC20Upgradeable.sol\":11663:11694  Approval(owner, spender, value) */\n      mload(0x40)\n      tag_137\n      swap2\n      swap1\n      tag_27\n      jump\t// in\n    tag_137:\n      mload(0x40)\n      dup1\n      swap2\n      sub\n      swap1\n      log3\n        /* \"@openzeppelin/contracts-upgradeable/token/ERC20/ERC20Upgradeable.sol\":11629:11705  if (emitEvent) {... */\n    tag_136:\n        /* \"@openzeppelin/contracts-upgradeable/token/ERC20/ERC20Upgradeable.sol\":11322:11711  {... */\n      pop\n        /* \"@openzeppelin/contracts-upgradeable/token/ERC20/ERC20Upgradeable.sol\":11224:11711  function _approve(address owner, address spender, uint256 value, bool emitEvent) internal virtual {... */\n      pop\n      pop\n      pop\n      pop\n      jump\t// out\n        /* \"@openzeppelin/contracts-upgradeable/token/ERC20/ERC20Upgradeable.sol\":7483:8653  function _update(address from, address to, uint256 value) internal virtual {... */\n    tag_121:\n        /* \"@openzeppelin/contracts-upgradeable/token/ERC20/ERC20Upgradeable.sol\":7568:7590  ERC20Storage storage $ */\n      0x00\n        /* \"@openzeppelin/contracts-upgradeable/token/ERC20/ERC20Upgradeable.sol\":7593:7611  _getERC20Storage() */\n      tag_139\n        /* \"@openzeppelin/contracts-upgradeable/token/ERC20/ERC20Upgradeable.sol\":7593:7609  _getERC20Storage */\n      tag_60\n        /* \"@openzeppelin/contracts-upgradeable/token/ERC20/ERC20Upgradeable.sol\":7593:7611  _getERC20Storage() */\n      jump\t// in\n    tag_139:\n        /* \"@openzeppelin/contracts-upgradeable/token/ERC20/ERC20Upgradeable.sol\":7568:7611  ERC20Storage storage $ = _getERC20Storage() */\n      swap1\n      pop\n        /* \"@openzeppelin/contracts-upgradeable/token/ERC20/ERC20Upgradeable.sol\":7641:7642  0 */\n      0x00\n        /* \"@openzeppelin/contracts-upgradeable/token/ERC20/ERC20Upgradeable.sol\":7625:7643  from == address(0) */\n      0xffffffffffffffffffffffffffffffffffffffff\n      and\n        /* \"@openzeppelin/contracts-upgradeable/token/ERC20/ERC20Upgradeable.sol\":7625:7629  from */\n      dup5\n        /* \"@openzeppelin/contracts-upgradeable/token/ERC20/ERC20Upgradeable.sol\":7625:7643  from == address(0) */\n      0xffffffffffffffffffffffffffffffffffffffff\n      and\n      sub\n        /* \"@openzeppelin/contracts-upgradeable/token/ERC20/ERC20Upgradeable.sol\":7621:8167  if (from == address(0)) {... */\n      tag_140\n      jumpi\n        /* \"@openzeppelin/contracts-upgradeable/token/ERC20/ERC20Upgradeable.sol\":7779:7784  value */\n      dup2\n        /* \"@openzeppelin/contracts-upgradeable/token/ERC20/ERC20Upgradeable.sol\":7761:7762  $ */\n      dup2\n        /* \"@openzeppelin/contracts-upgradeable/token/ERC20/ERC20Upgradeable.sol\":7761:7775  $._totalSupply */\n      0x02\n      add\n      0x00\n        /* \"@openzeppelin/contracts-upgradeable/token/ERC20/ERC20Upgradeable.sol\":7761:7784  $._totalSupply += value */\n      dup3\n      dup3\n      sload\n      tag_141\n      swap2\n      swap1\n      tag_142\n      jump\t// in\n    tag_141:\n      swap3\n      pop\n      pop\n      dup2\n      swap1\n      sstore\n      pop\n        /* \"@openzeppelin/contracts-upgradeable/token/ERC20/ERC20Upgradeable.sol\":7621:8167  if (from == address(0)) {... */\n      jump(tag_143)\n    tag_140:\n        /* \"@openzeppelin/contracts-upgradeable/token/ERC20/ERC20Upgradeable.sol\":7815:7834  uint256 fromBalance */\n      0x00\n        /* \"@openzeppelin/contracts-upgradeable/token/ERC20/ERC20Upgradeable.sol\":7837:7838  $ */\n      dup2\n        /* \"@openzeppelin/contracts-upgradeable/token/ERC20/ERC20Upgradeable.sol\":7837:7848  $._balances */\n      0x00\n      add\n        /* \"@openzeppelin/contracts-upgradeable/token/ERC20/ERC20Upgradeable.sol\":7837:7854  $._balances[from] */\n      0x00\n        /* \"@openzeppelin/contracts-upgradeable/token/ERC20/ERC20Upgradeable.sol\":7849:7853  from */\n      dup7\n        /* \"@openzeppelin/contracts-upgradeable/token/ERC20/ERC20Upgradeable.sol\":7837:7854  $._balances[from] */\n      0xffffffffffffffffffffffffffffffffffffffff\n      and\n      0xffffffffffffffffffffffffffffffffffffffff\n      and\n      dup2\n      mstore\n      0x20\n      add\n      swap1\n      dup2\n      mstore\n      0x20\n      add\n      0x00\n      keccak256\n      sload\n        /* \"@openzeppelin/contracts-upgradeable/token/ERC20/ERC20Upgradeable.sol\":7815:7854  uint256 fromBalance = $._balances[from] */\n      swap1\n      pop\n        /* \"@openzeppelin/contracts-upgradeable/token/ERC20/ERC20Upgradeable.sol\":7886:7891  value */\n      dup3\n        /* \"@openzeppelin/contracts-upgradeable/token/ERC20/ERC20Upgradeable.sol\":7872:7883  fromBalance */\n      dup2\n        /* \"@openzeppelin/contracts-upgradeable/token/ERC20/ERC20Upgradeable.sol\":7872:7891  fromBalance < value */\n      lt\n        /* \"@openzeppelin/contracts-upgradeable/token/ERC20/ERC20Upgradeable.sol\":7868:7983  if (fromBalance < value) {... */\n      iszero\n      tag_144\n      jumpi\n        /* \"@openzeppelin/contracts-upgradeable/token/ERC20/ERC20Upgradeable.sol\":7943:7947  from */\n      dup5\n        /* \"@openzeppelin/contracts-upgradeable/token/ERC20/ERC20Upgradeable.sol\":7949:7960  fromBalance */\n      dup2\n        /* \"@openzeppelin/contracts-upgradeable/token/ERC20/ERC20Upgradeable.sol\":7962:7967  value */\n      dup5\n        /* \"@openzeppelin/contracts-upgradeable/token/ERC20/ERC20Upgradeable.sol\":7918:7968  ERC20InsufficientBalance(from, fromBalance, value) */\n      mload(0x40)\n      0xe450d38c00000000000000000000000000000000000000000000000000000000\n      dup2\n      mstore\n      0x04\n      add\n      tag_145\n      swap4\n      swap3\n      swap2\n      swap1\n      tag_128\n      jump\t// in\n    tag_145:\n      mload(0x40)\n      dup1\n      swap2\n      sub\n      swap1\n      revert\n        /* \"@openzeppelin/contracts-upgradeable/token/ERC20/ERC20Upgradeable.sol\":7868:7983  if (fromBalance < value) {... */\n    tag_144:\n        /* \"@openzeppelin/contracts-upgradeable/token/ERC20/ERC20Upgradeable.sol\":8137:8142  value */\n      dup3\n        /* \"@openzeppelin/contracts-upgradeable/token/ERC20/ERC20Upgradeable.sol\":8123:8134  fromBalance */\n      dup2\n        /* \"@openzeppelin/contracts-upgradeable/token/ERC20/ERC20Upgradeable.sol\":8123:8142  fromBalance - value */\n      sub\n        /* \"@openzeppelin/contracts-upgradeable/token/ERC20/ERC20Upgradeable.sol\":8103:8104  $ */\n      dup3\n        /* \"@openzeppelin/contracts-upgradeable/token/ERC20/ERC20Upgradeable.sol\":8103:8114  $._balances */\n      0x00\n      add\n        /* \"@openzeppelin/contracts-upgradeable/token/ERC20/ERC20Upgradeable.sol\":8103:8120  $._balances[from] */\n      0x00\n        /* \"@openzeppelin/contracts-upgradeable/token/ERC20/ERC20Upgradeable.sol\":8115:8119  from */\n      dup8\n        /* \"@openzeppelin/contracts-upgradeable/token/ERC20/ERC20Upgradeable.sol\":8103:8120  $._balances[from] */\n      0xffffffffffffffffffffffffffffffffffffffff\n      and\n      0xffffffffffffffffffffffffffffffffffffffff\n      and\n      dup2\n      mstore\n      0x20\n      add\n      swap1\n      dup2\n      mstore\n      0x20\n      add\n      0x00\n      keccak256\n        /* \"@openzeppelin/contracts-upgradeable/token/ERC20/ERC20Upgradeable.sol\":8103:8142  $._balances[from] = fromBalance - value */\n      dup2\n      swap1\n      sstore\n      pop\n        /* \"@openzeppelin/contracts-upgradeable/token/ERC20/ERC20Upgradeable.sol\":7801:8167  {... */\n      pop\n        /* \"@openzeppelin/contracts-upgradeable/token/ERC20/ERC20Upgradeable.sol\":7621:8167  if (from == address(0)) {... */\n    tag_143:\n        /* \"@openzeppelin/contracts-upgradeable/token/ERC20/ERC20Upgradeable.sol\":8195:8196  0 */\n      0x00\n        /* \"@openzeppelin/contracts-upgradeable/token/ERC20/ERC20Upgradeable.sol\":8181:8197  to == address(0) */\n      0xffffffffffffffffffffffffffffffffffffffff\n      and\n        /* \"@openzeppelin/contracts-upgradeable/token/ERC20/ERC20Upgradeable.sol\":8181:8183  to */\n      dup4\n        /* \"@openzeppelin/contracts-upgradeable/token/ERC20/ERC20Upgradeable.sol\":8181:8197  to == address(0) */\n      0xffffffffffffffffffffffffffffffffffffffff\n      and\n      sub\n        /* \"@openzeppelin/contracts-upgradeable/token/ERC20/ERC20Upgradeable.sol\":8177:8606  if (to == address(0)) {... */\n      tag_146\n      jumpi\n        /* \"@openzeppelin/contracts-upgradeable/token/ERC20/ERC20Upgradeable.sol\":8362:8367  value */\n      dup2\n        /* \"@openzeppelin/contracts-upgradeable/token/ERC20/ERC20Upgradeable.sol\":8344:8345  $ */\n      dup2\n        /* \"@openzeppelin/contracts-upgradeable/token/ERC20/ERC20Upgradeable.sol\":8344:8358  $._totalSupply */\n      0x02\n      add\n      0x00\n        /* \"@openzeppelin/contracts-upgradeable/token/ERC20/ERC20Upgradeable.sol\":8344:8367  $._totalSupply -= value */\n      dup3\n      dup3\n      sload\n      sub\n      swap3\n      pop\n      pop\n      dup2\n      swap1\n      sstore\n      pop\n        /* \"@openzeppelin/contracts-upgradeable/token/ERC20/ERC20Upgradeable.sol\":8177:8606  if (to == address(0)) {... */\n      jump(tag_147)\n    tag_146:\n        /* \"@openzeppelin/contracts-upgradeable/token/ERC20/ERC20Upgradeable.sol\":8576:8581  value */\n      dup2\n        /* \"@openzeppelin/contracts-upgradeable/token/ERC20/ERC20Upgradeable.sol\":8557:8558  $ */\n      dup2\n        /* \"@openzeppelin/contracts-upgradeable/token/ERC20/ERC20Upgradeable.sol\":8557:8568  $._balances */\n      0x00\n      add\n        /* \"@openzeppelin/contracts-upgradeable/token/ERC20/ERC20Upgradeable.sol\":8557:8572  $._balances[to] */\n      0x00\n        /* \"@openzeppelin/contracts-upgradeable/token/ERC20/ERC20Upgradeable.sol\":8569:8571  to */\n      dup6\n        /* \"@openzeppelin/contracts-upgradeable/token/ERC20/ERC20Upgradeable.sol\":8557:8572  $._balances[to] */\n      0xffffffffffffffffffffffffffffffffffffffff\n      and\n      0xffffffffffffffffffffffffffffffffffffffff\n      and\n      dup2\n      mstore\n      0x20\n      add\n      swap1\n      dup2\n      mstore\n      0x20\n      add\n      0x00\n      keccak256\n      0x00\n        /* \"@openzeppelin/contracts-upgradeable/token/ERC20/ERC20Upgradeable.sol\":8557:8581  $._balances[to] += value */\n      dup3\n      dup3\n      sload\n      add\n      swap3\n      pop\n      pop\n      dup2\n      swap1\n      sstore\n      pop\n        /* \"@openzeppelin/contracts-upgradeable/token/ERC20/ERC20Upgradeable.sol\":8177:8606  if (to == address(0)) {... */\n    tag_147:\n        /* \"@openzeppelin/contracts-upgradeable/token/ERC20/ERC20Upgradeable.sol\":8636:8638  to */\n      dup3\n        /* \"@openzeppelin/contracts-upgradeable/token/ERC20/ERC20Upgradeable.sol\":8621:8646  Transfer(from, to, value) */\n      0xffffffffffffffffffffffffffffffffffffffff\n      and\n        /* \"@openzeppelin/contracts-upgradeable/token/ERC20/ERC20Upgradeable.sol\":8630:8634  from */\n      dup5\n        /* \"@openzeppelin/contracts-upgradeable/token/ERC20/ERC20Upgradeable.sol\":8621:8646  Transfer(from, to, value) */\n      0xffffffffffffffffffffffffffffffffffffffff\n      and\n      0xddf252ad1be2c89b69c2b068fc378daa952ba7f163c4a11628f55a4df523b3ef\n        /* \"@openzeppelin/contracts-upgradeable/token/ERC20/ERC20Upgradeable.sol\":8640:8645  value */\n      dup5\n        /* \"@openzeppelin/contracts-upgradeable/token/ERC20/ERC20Upgradeable.sol\":8621:8646  Transfer(from, to, value) */\n      mload(0x40)\n      tag_148\n      swap2\n      swap1\n      tag_27\n      jump\t// in\n    tag_148:\n      mload(0x40)\n      dup1\n      swap2\n      sub\n      swap1\n      log3\n        /* \"@openzeppelin/contracts-upgradeable/token/ERC20/ERC20Upgradeable.sol\":7558:8653  {... */\n      pop\n        /* \"@openzeppelin/contracts-upgradeable/token/ERC20/ERC20Upgradeable.sol\":7483:8653  function _update(address from, address to, uint256 value) internal virtual {... */\n      pop\n      pop\n      pop\n      jump\t// out\n        /* \"#utility.yul\":7:106   */\n    tag_149:\n        /* \"#utility.yul\":59:65   */\n      0x00\n        /* \"#utility.yul\":93:98   */\n      dup2\n        /* \"#utility.yul\":87:99   */\n      mload\n        /* \"#utility.yul\":77:99   */\n      swap1\n      pop\n        /* \"#utility.yul\":7:106   */\n      swap2\n      swap1\n      pop\n      jump\t// out\n        /* \"#utility.yul\":112:281   */\n    tag_150:\n        /* \"#utility.yul\":196:207   */\n      0x00\n        /* \"#utility.yul\":230:236   */\n      dup3\n        /* \"#utility.yul\":225:228   */\n      dup3\n        /* \"#utility.yul\":218:237   */\n      mstore\n        /* \"#utility.yul\":270:274   */\n      0x20\n        /* \"#utility.yul\":265:268   */\n      dup3\n        /* \"#utility.yul\":261:275   */\n      add\n        /* \"#utility.yul\":246:275   */\n      swap1\n      pop\n        /* \"#utility.yul\":112:281   */\n      swap3\n      swap2\n      pop\n      pop\n      jump\t// out\n        /* \"#utility.yul\":287:426   */\n    tag_151:\n        /* \"#utility.yul\":376:382   */\n      dup3\n        /* \"#utility.yul\":371:374   */\n      dup2\n        /* \"#utility.yul\":366:369   */\n      dup4\n        /* \"#utility.yul\":360:383   */\n      mcopy\n        /* \"#utility.yul\":417:418   */\n      0x00\n        /* \"#utility.yul\":408:414   */\n      dup4\n        /* \"#utility.yul\":403:406   */\n      dup4\n        /* \"#utility.yul\":399:415   */\n      add\n        /* \"#utility.yul\":392:419   */\n      mstore\n        /* \"#utility.yul\":287:426   */\n      pop\n      pop\n      pop\n      jump\t// out\n        /* \"#utility.yul\":432:534   */\n    tag_152:\n        /* \"#utility.yul\":473:479   */\n      0x00\n        /* \"#utility.yul\":524:526   */\n      0x1f\n        /* \"#utility.yul\":520:527   */\n      not\n        /* \"#utility.yul\":515:517   */\n      0x1f\n        /* \"#utility.yul\":508:513   */\n      dup4\n        /* \"#utility.yul\":504:518   */\n      add\n        /* \"#utility.yul\":500:528   */\n      and\n        /* \"#utility.yul\":490:528   */\n      swap1\n      pop\n        /* \"#utility.yul\":432:534   */\n      swap2\n      swap1\n      pop\n      jump\t// out\n        /* \"#utility.yul\":540:917   */\n    tag_153:\n        /* \"#utility.yul\":628:631   */\n      0x00\n        /* \"#utility.yul\":656:695   */\n      tag_182\n        /* \"#utility.yul\":689:694   */\n      dup3\n        /* \"#utility.yul\":656:695   */\n      tag_149\n      jump\t// in\n    tag_182:\n        /* \"#utility.yul\":711:782   */\n      tag_183\n        /* \"#utility.yul\":775:781   */\n      dup2\n        /* \"#utility.yul\":770:773   */\n      dup6\n        /* \"#utility.yul\":711:782   */\n      tag_150\n      jump\t// in\n    tag_183:\n        /* \"#utility.yul\":704:782   */\n      swap4\n      pop\n        /* \"#utility.yul\":791:856   */\n      tag_184\n        /* \"#utility.yul\":849:855   */\n      dup2\n        /* \"#utility.yul\":844:847   */\n      dup6\n        /* \"#utility.yul\":837:841   */\n      0x20\n        /* \"#utility.yul\":830:835   */\n      dup7\n        /* \"#utility.yul\":826:842   */\n      add\n        /* \"#utility.yul\":791:856   */\n      tag_151\n      jump\t// in\n    tag_184:\n        /* \"#utility.yul\":881:910   */\n      tag_185\n        /* \"#utility.yul\":903:909   */\n      dup2\n        /* \"#utility.yul\":881:910   */\n      tag_152\n      jump\t// in\n    tag_185:\n        /* \"#utility.yul\":876:879   */\n      dup5\n        /* \"#utility.yul\":872:911   */\n      add\n        /* \"#utility.yul\":865:911   */\n      swap2\n      pop\n        /* \"#utility.yul\":632:917   */\n      pop\n        /* \"#utility.yul\":540:917   */\n      swap3\n      swap2\n      pop\n      pop\n      jump\t// out\n        /* \"#utility.yul\":923:1236   */\n    tag_17:\n        /* \"#utility.yul\":1036:1040   */\n      0x00\n        /* \"#utility.yul\":1074:1076   */\n      0x20\n        /* \"#utility.yul\":1063:1072   */\n      dup3\n        /* \"#utility.yul\":1059:1077   */\n      add\n        /* \"#utility.yul\":1051:1077   */\n      swap1\n      pop\n        /* \"#utility.yul\":1123:1132   */\n      dup2\n        /* \"#utility.yul\":1117:1121   */\n      dup2\n        /* \"#utility.yul\":1113:1133   */\n      sub\n        /* \"#utility.yul\":1109:1110   */\n      0x00\n        /* \"#utility.yul\":1098:1107   */\n      dup4\n        /* \"#utility.yul\":1094:1111   */\n      add\n        /* \"#utility.yul\":1087:1134   */\n      mstore\n        /* \"#utility.yul\":1151:1229   */\n      tag_187\n        /* \"#utility.yul\":1224:1228   */\n      dup2\n        /* \"#utility.yul\":1215:1221   */\n      dup5\n        /* \"#utility.yul\":1151:1229   */\n      tag_153\n      jump\t// in\n    tag_187:\n        /* \"#utility.yul\":1143:1229   */\n      swap1\n      pop\n        /* \"#utility.yul\":923:1236   */\n      swap3\n      swap2\n      pop\n      pop\n      jump\t// out\n        /* \"#utility.yul\":1323:1440   */\n    tag_155:\n        /* \"#utility.yul\":1432:1433   */\n      0x00\n        /* \"#utility.yul\":1429:1430   */\n      dup1\n        /* \"#utility.yul\":1422:1434   */\n      revert\n        /* \"#utility.yul\":1569:1695   */\n    tag_157:\n        /* \"#utility.yul\":1606:1613   */\n      0x00\n        /* \"#utility.yul\":1646:1688   */\n      0xffffffffffffffffffffffffffffffffffffffff\n        /* \"#utility.yul\":1639:1644   */\n      dup3\n        /* \"#utility.yul\":1635:1689   */\n      and\n        /* \"#utility.yul\":1624:1689   */\n      swap1\n      pop\n        /* \"#utility.yul\":1569:1695   */\n      swap2\n      swap1\n      pop\n      jump\t// out\n        /* \"#utility.yul\":1701:1797   */\n    tag_158:\n        /* \"#utility.yul\":1738:1745   */\n      0x00\n        /* \"#utility.yul\":1767:1791   */\n      tag_193\n        /* \"#utility.yul\":1785:1790   */\n      dup3\n        /* \"#utility.yul\":1767:1791   */\n      tag_157\n      jump\t// in\n    tag_193:\n        /* \"#utility.yul\":1756:1791   */\n      swap1\n      pop\n        /* \"#utility.yul\":1701:1797   */\n      swap2\n      swap1\n      pop\n      jump\t// out\n        /* \"#utility.yul\":1803:1925   */\n    tag_159:\n        /* \"#utility.yul\":1876:1900   */\n      tag_195\n        /* \"#utility.yul\":1894:1899   */\n      dup2\n        /* \"#utility.yul\":1876:1900   */\n      tag_158\n      jump\t// in\n    tag_195:\n        /* \"#utility.yul\":1869:1874   */\n      dup2\n        /* \"#utility.yul\":1866:1901   */\n      eq\n        /* \"#utility.yul\":1856:1919   */\n      tag_196\n      jumpi\n        /* \"#utility.yul\":1915:1916   */\n      0x00\n        /* \"#utility.yul\":1912:1913   */\n      dup1\n        /* \"#utility.yul\":1905:1917   */\n      revert\n        /* \"#utility.yul\":1856:1919   */\n    tag_196:\n        /* \"#utility.yul\":1803:1925   */\n      pop\n      jump\t// out\n        /* \"#utility.yul\":1931:2070   */\n    tag_160:\n        /* \"#utility.yul\":1977:1982   */\n      0x00\n        /* \"#utility.yul\":2015:2021   */\n      dup2\n        /* \"#utility.yul\":2002:2022   */\n      calldataload\n        /* \"#utility.yul\":1993:2022   */\n      swap1\n      pop\n        /* \"#utility.yul\":2031:2064   */\n      tag_198\n        /* \"#utility.yul\":2058:2063   */\n      dup2\n        /* \"#utility.yul\":2031:2064   */\n      tag_159\n      jump\t// in\n    tag_198:\n        /* \"#utility.yul\":1931:2070   */\n      swap3\n      swap2\n      pop\n      pop\n      jump\t// out\n        /* \"#utility.yul\":2076:2153   */\n    tag_161:\n        /* \"#utility.yul\":2113:2120   */\n      0x00\n        /* \"#utility.yul\":2142:2147   */\n      dup2\n        /* \"#utility.yul\":2131:2147   */\n      swap1\n      pop\n        /* \"#utility.yul\":2076:2153   */\n      swap2\n      swap1\n      pop\n      jump\t// out\n        /* \"#utility.yul\":2159:2281   */\n    tag_162:\n        /* \"#utility.yul\":2232:2256   */\n      tag_201\n        /* \"#utility.yul\":2250:2255   */\n      dup2\n        /* \"#utility.yul\":2232:2256   */\n      tag_161\n      jump\t// in\n    tag_201:\n        /* \"#utility.yul\":2225:2230   */\n      dup2\n        /* \"#utility.yul\":2222:2257   */\n      eq\n        /* \"#utility.yul\":2212:2275   */\n      tag_202\n      jumpi\n        /* \"#utility.yul\":2271:2272   */\n      0x00\n        /* \"#utility.yul\":2268:2269   */\n      dup1\n        /* \"#utility.yul\":2261:2273   */\n      revert\n        /* \"#utility.yul\":2212:2275   */\n    tag_202:\n        /* \"#utility.yul\":2159:2281   */\n      pop\n      jump\t// out\n        /* \"#utility.yul\":2287:2426   */\n    tag_163:\n        /* \"#utility.yul\":2333:2338   */\n      0x00\n        /* \"#utility.yul\":2371:2377   */\n      dup2\n        /* \"#utility.yul\":2358:2378   */\n      calldataload\n        /* \"#utility.yul\":2349:2378   */\n      swap1\n      pop\n        /* \"#utility.yul\":2387:2420   */\n      tag_204\n        /* \"#utility.yul\":2414:2419   */\n      dup2\n        /* \"#utility.yul\":2387:2420   */\n      tag_162\n      jump\t// in\n    tag_204:\n        /* \"#utility.yul\":2287:2426   */\n      swap3\n      swap2\n      pop\n      pop\n      jump\t// out\n        /* \"#utility.yul\":2432:2906   */\n    tag_20:\n        /* \"#utility.yul\":2500:2506   */\n      0x00\n        /* \"#utility.yul\":2508:2514   */\n      dup1\n        /* \"#utility.yul\":2557:2559   */\n      0x40\n        /* \"#utility.yul\":2545:2554   */\n      dup4\n        /* \"#utility.yul\":2536:2543   */\n      dup6\n        /* \"#utility.yul\":2532:2555   */\n      sub\n        /* \"#utility.yul\":2528:2560   */\n      slt\n        /* \"#utility.yul\":2525:2644   */\n      iszero\n      tag_206\n      jumpi\n        /* \"#utility.yul\":2563:2642   */\n      tag_207\n      tag_155\n      jump\t// in\n    tag_207:\n        /* \"#utility.yul\":2525:2644   */\n    tag_206:\n        /* \"#utility.yul\":2683:2684   */\n      0x00\n        /* \"#utility.yul\":2708:2761   */\n      tag_208\n        /* \"#utility.yul\":2753:2760   */\n      dup6\n        /* \"#utility.yul\":2744:2750   */\n      dup3\n        /* \"#utility.yul\":2733:2742   */\n      dup7\n        /* \"#utility.yul\":2729:2751   */\n      add\n        /* \"#utility.yul\":2708:2761   */\n      tag_160\n      jump\t// in\n    tag_208:\n        /* \"#utility.yul\":2698:2761   */\n      swap3\n      pop\n        /* \"#utility.yul\":2654:2771   */\n      pop\n        /* \"#utility.yul\":2810:2812   */\n      0x20\n        /* \"#utility.yul\":2836:2889   */\n      tag_209\n        /* \"#utility.yul\":2881:2888   */\n      dup6\n        /* \"#utility.yul\":2872:2878   */\n      dup3\n        /* \"#utility.yul\":2861:2870   */\n      dup7\n        /* \"#utility.yul\":2857:2879   */\n      add\n        /* \"#utility.yul\":2836:2889   */\n      tag_163\n      jump\t// in\n    tag_209:\n        /* \"#utility.yul\":2826:2889   */\n      swap2\n      pop\n        /* \"#utility.yul\":2781:2899   */\n      pop\n        /* \"#utility.yul\":2432:2906   */\n      swap3\n      pop\n      swap3\n      swap1\n      pop\n      jump\t// out\n        /* \"#utility.yul\":2912:3002   */\n    tag_164:\n        /* \"#utility.yul\":2946:2953   */\n      0x00\n        /* \"#utility.yul\":2989:2994   */\n      dup2\n        /* \"#utility.yul\":2982:2995   */\n      iszero\n        /* \"#utility.yul\":2975:2996   */\n      iszero\n        /* \"#utility.yul\":2964:2996   */\n      swap1\n      pop\n        /* \"#utility.yul\":2912:3002   */\n      swap2\n      swap1\n      pop\n      jump\t// out\n        /* \"#utility.yul\":3008:3117   */\n    tag_165:\n        /* \"#utility.yul\":3089:3110   */\n      tag_212\n        /* \"#utility.yul\":3104:3109   */\n      dup2\n        /* \"#utility.yul\":3089:3110   */\n      tag_164\n      jump\t// in\n    tag_212:\n        /* \"#utility.yul\":3084:3087   */\n      dup3\n        /* \"#utility.yul\":3077:3111   */\n      mstore\n        /* \"#utility.yul\":3008:3117   */\n      pop\n      pop\n      jump\t// out\n        /* \"#utility.yul\":3123:3333   */\n    tag_23:\n        /* \"#utility.yul\":3210:3214   */\n      0x00\n        /* \"#utility.yul\":3248:3250   */\n      0x20\n        /* \"#utility.yul\":3237:3246   */\n      dup3\n        /* \"#utility.yul\":3233:3251   */\n      add\n        /* \"#utility.yul\":3225:3251   */\n      swap1\n      pop\n        /* \"#utility.yul\":3261:3326   */\n      tag_214\n        /* \"#utility.yul\":3323:3324   */\n      0x00\n        /* \"#utility.yul\":3312:3321   */\n      dup4\n        /* \"#utility.yul\":3308:3325   */\n      add\n        /* \"#utility.yul\":3299:3305   */\n      dup5\n        /* \"#utility.yul\":3261:3326   */\n      tag_165\n      jump\t// in\n    tag_214:\n        /* \"#utility.yul\":3123:3333   */\n      swap3\n      swap2\n      pop\n      pop\n      jump\t// out\n        /* \"#utility.yul\":3339:3457   */\n    tag_166:\n        /* \"#utility.yul\":3426:3450   */\n      tag_216\n        /* \"#utility.yul\":3444:3449   */\n      dup2\n        /* \"#utility.yul\":3426:3450   */\n      tag_161\n      jump\t// in\n    tag_216:\n        /* \"#utility.yul\":3421:3424   */\n      dup3\n        /* \"#utility.yul\":3414:3451   */\n      mstore\n        /* \"#utility.yul\":3339:3457   */\n      pop\n      pop\n      jump\t// out\n        /* \"#utility.yul\":3463:3685   */\n    tag_27:\n        /* \"#utility.yul\":3556:3560   */\n      0x00\n        /* \"#utility.yul\":3594:3596   */\n      0x20\n        /* \"#utility.yul\":3583:3592   */\n      dup3\n        /* \"#utility.yul\":3579:3597   */\n      add\n        /* \"#utility.yul\":3571:3597   */\n      swap1\n      pop\n        /* \"#utility.yul\":3607:3678   */\n      tag_218\n        /* \"#utility.yul\":3675:3676   */\n      0x00\n        /* \"#utility.yul\":3664:3673   */\n      dup4\n        /* \"#utility.yul\":3660:3677   */\n      add\n        /* \"#utility.yul\":3651:3657   */\n      dup5\n        /* \"#utility.yul\":3607:3678   */\n      tag_166\n      jump\t// in\n    tag_218:\n        /* \"#utility.yul\":3463:3685   */\n      swap3\n      swap2\n      pop\n      pop\n      jump\t// out\n        /* \"#utility.yul\":3691:4310   */\n    tag_34:\n        /* \"#utility.yul\":3768:3774   */\n      0x00\n        /* \"#utility.yul\":3776:3782   */\n      dup1\n        /* \"#utility.yul\":3784:3790   */\n      0x00\n        /* \"#utility.yul\":3833:3835   */\n      0x60\n        /* \"#utility.yul\":3821:3830   */\n      dup5\n        /* \"#utility.yul\":3812:3819   */\n      dup7\n        /* \"#utility.yul\":3808:3831   */\n      sub\n        /* \"#utility.yul\":3804:3836   */\n      slt\n        /* \"#utility.yul\":3801:3920   */\n      iszero\n      tag_220\n      jumpi\n        /* \"#utility.yul\":3839:3918   */\n      tag_221\n      tag_155\n      jump\t// in\n    tag_221:\n        /* \"#utility.yul\":3801:3920   */\n    tag_220:\n        /* \"#utility.yul\":3959:3960   */\n      0x00\n        /* \"#utility.yul\":3984:4037   */\n      tag_222\n        /* \"#utility.yul\":4029:4036   */\n      dup7\n        /* \"#utility.yul\":4020:4026   */\n      dup3\n        /* \"#utility.yul\":4009:4018   */\n      dup8\n        /* \"#utility.yul\":4005:4027   */\n      add\n        /* \"#utility.yul\":3984:4037   */\n      tag_160\n      jump\t// in\n    tag_222:\n        /* \"#utility.yul\":3974:4037   */\n      swap4\n      pop\n        /* \"#utility.yul\":3930:4047   */\n      pop\n        /* \"#utility.yul\":4086:4088   */\n      0x20\n        /* \"#utility.yul\":4112:4165   */\n      tag_223\n        /* \"#utility.yul\":4157:4164   */\n      dup7\n        /* \"#utility.yul\":4148:4154   */\n      dup3\n        /* \"#utility.yul\":4137:4146   */\n      dup8\n        /* \"#utility.yul\":4133:4155   */\n      add\n        /* \"#utility.yul\":4112:4165   */\n      tag_160\n      jump\t// in\n    tag_223:\n        /* \"#utility.yul\":4102:4165   */\n      swap3\n      pop\n        /* \"#utility.yul\":4057:4175   */\n      pop\n        /* \"#utility.yul\":4214:4216   */\n      0x40\n        /* \"#utility.yul\":4240:4293   */\n      tag_224\n        /* \"#utility.yul\":4285:4292   */\n      dup7\n        /* \"#utility.yul\":4276:4282   */\n      dup3\n        /* \"#utility.yul\":4265:4274   */\n      dup8\n        /* \"#utility.yul\":4261:4283   */\n      add\n        /* \"#utility.yul\":4240:4293   */\n      tag_163\n      jump\t// in\n    tag_224:\n        /* \"#utility.yul\":4230:4293   */\n      swap2\n      pop\n        /* \"#utility.yul\":4185:4303   */\n      pop\n        /* \"#utility.yul\":3691:4310   */\n      swap3\n      pop\n      swap3\n      pop\n      swap3\n      jump\t// out\n        /* \"#utility.yul\":4316:4402   */\n    tag_167:\n        /* \"#utility.yul\":4351:4358   */\n      0x00\n        /* \"#utility.yul\":4391:4395   */\n      0xff\n        /* \"#utility.yul\":4384:4389   */\n      dup3\n        /* \"#utility.yul\":4380:4396   */\n      and\n        /* \"#utility.yul\":4369:4396   */\n      swap1\n      pop\n        /* \"#utility.yul\":4316:4402   */\n      swap2\n      swap1\n      pop\n      jump\t// out\n        /* \"#utility.yul\":4408:4520   */\n    tag_168:\n        /* \"#utility.yul\":4491:4513   */\n      tag_227\n        /* \"#utility.yul\":4507:4512   */\n      dup2\n        /* \"#utility.yul\":4491:4513   */\n      tag_167\n      jump\t// in\n    tag_227:\n        /* \"#utility.yul\":4486:4489   */\n      dup3\n        /* \"#utility.yul\":4479:4514   */\n      mstore\n        /* \"#utility.yul\":4408:4520   */\n      pop\n      pop\n      jump\t// out\n        /* \"#utility.yul\":4526:4740   */\n    tag_40:\n        /* \"#utility.yul\":4615:4619   */\n      0x00\n        /* \"#utility.yul\":4653:4655   */\n      0x20\n        /* \"#utility.yul\":4642:4651   */\n      dup3\n        /* \"#utility.yul\":4638:4656   */\n      add\n        /* \"#utility.yul\":4630:4656   */\n      swap1\n      pop\n        /* \"#utility.yul\":4666:4733   */\n      tag_229\n        /* \"#utility.yul\":4730:4731   */\n      0x00\n        /* \"#utility.yul\":4719:4728   */\n      dup4\n        /* \"#utility.yul\":4715:4732   */\n      add\n        /* \"#utility.yul\":4706:4712   */\n      dup5\n        /* \"#utility.yul\":4666:4733   */\n      tag_168\n      jump\t// in\n    tag_229:\n        /* \"#utility.yul\":4526:4740   */\n      swap3\n      swap2\n      pop\n      pop\n      jump\t// out\n        /* \"#utility.yul\":4746:5075   */\n    tag_43:\n        /* \"#utility.yul\":4805:4811   */\n      0x00\n        /* \"#utility.yul\":4854:4856   */\n      0x20\n        /* \"#utility.yul\":4842:4851   */\n      dup3\n        /* \"#utility.yul\":4833:4840   */\n      dup5\n        /* \"#utility.yul\":4829:4852   */\n      sub\n        /* \"#utility.yul\":4825:4857   */\n      slt\n        /* \"#utility.yul\":4822:4941   */\n      iszero\n      tag_231\n      jumpi\n        /* \"#utility.yul\":4860:4939   */\n      tag_232\n      tag_155\n      jump\t// in\n    tag_232:\n        /* \"#utility.yul\":4822:4941   */\n    tag_231:\n        /* \"#utility.yul\":4980:4981   */\n      0x00\n        /* \"#utility.yul\":5005:5058   */\n      tag_233\n        /* \"#utility.yul\":5050:5057   */\n      dup5\n        /* \"#utility.yul\":5041:5047   */\n      dup3\n        /* \"#utility.yul\":5030:5039   */\n      dup6\n        /* \"#utility.yul\":5026:5048   */\n      add\n        /* \"#utility.yul\":5005:5058   */\n      tag_160\n      jump\t// in\n    tag_233:\n        /* \"#utility.yul\":4995:5058   */\n      swap2\n      pop\n        /* \"#utility.yul\":4951:5068   */\n      pop\n        /* \"#utility.yul\":4746:5075   */\n      swap3\n      swap2\n      pop\n      pop\n      jump\t// out\n        /* \"#utility.yul\":5081:5555   */\n    tag_55:\n        /* \"#utility.yul\":5149:5155   */\n      0x00\n        /* \"#utility.yul\":5157:5163   */\n      dup1\n        /* \"#utility.yul\":5206:5208   */\n      0x40\n        /* \"#utility.yul\":5194:5203   */\n      dup4\n        /* \"#utility.yul\":5185:5192   */\n      dup6\n        /* \"#utility.yul\":5181:5204   */\n      sub\n        /* \"#utility.yul\":5177:5209   */\n      slt\n        /* \"#utility.yul\":5174:5293   */\n      iszero\n      tag_235\n      jumpi\n        /* \"#utility.yul\":5212:5291   */\n      tag_236\n      tag_155\n      jump\t// in\n    tag_236:\n        /* \"#utility.yul\":5174:5293   */\n    tag_235:\n        /* \"#utility.yul\":5332:5333   */\n      0x00\n        /* \"#utility.yul\":5357:5410   */\n      tag_237\n        /* \"#utility.yul\":5402:5409   */\n      dup6\n        /* \"#utility.yul\":5393:5399   */\n      dup3\n        /* \"#utility.yul\":5382:5391   */\n      dup7\n        /* \"#utility.yul\":5378:5400   */\n      add\n        /* \"#utility.yul\":5357:5410   */\n      tag_160\n      jump\t// in\n    tag_237:\n        /* \"#utility.yul\":5347:5410   */\n      swap3\n      pop\n        /* \"#utility.yul\":5303:5420   */\n      pop\n        /* \"#utility.yul\":5459:5461   */\n      0x20\n        /* \"#utility.yul\":5485:5538   */\n      tag_238\n        /* \"#utility.yul\":5530:5537   */\n      dup6\n        /* \"#utility.yul\":5521:5527   */\n      dup3\n        /* \"#utility.yul\":5510:5519   */\n      dup7\n        /* \"#utility.yul\":5506:5528   */\n      add\n        /* \"#utility.yul\":5485:5538   */\n      tag_160\n      jump\t// in\n    tag_238:\n        /* \"#utility.yul\":5475:5538   */\n      swap2\n      pop\n        /* \"#utility.yul\":5430:5548   */\n      pop\n        /* \"#utility.yul\":5081:5555   */\n      swap3\n      pop\n      swap3\n      swap1\n      pop\n      jump\t// out\n        /* \"#utility.yul\":5561:5741   */\n    tag_169:\n        /* \"#utility.yul\":5609:5686   */\n      0x4e487b7100000000000000000000000000000000000000000000000000000000\n        /* \"#utility.yul\":5606:5607   */\n      0x00\n        /* \"#utility.yul\":5599:5687   */\n      mstore\n        /* \"#utility.yul\":5706:5710   */\n      0x22\n        /* \"#utility.yul\":5703:5704   */\n      0x04\n        /* \"#utility.yul\":5696:5711   */\n      mstore\n        /* \"#utility.yul\":5730:5734   */\n      0x24\n        /* \"#utility.yul\":5727:5728   */\n      0x00\n        /* \"#utility.yul\":5720:5735   */\n      revert\n        /* \"#utility.yul\":5747:6067   */\n    tag_62:\n        /* \"#utility.yul\":5791:5797   */\n      0x00\n        /* \"#utility.yul\":5828:5829   */\n      0x02\n        /* \"#utility.yul\":5822:5826   */\n      dup3\n        /* \"#utility.yul\":5818:5830   */\n      div\n        /* \"#utility.yul\":5808:5830   */\n      swap1\n      pop\n        /* \"#utility.yul\":5875:5876   */\n      0x01\n        /* \"#utility.yul\":5869:5873   */\n      dup3\n        /* \"#utility.yul\":5865:5877   */\n      and\n        /* \"#utility.yul\":5896:5914   */\n      dup1\n        /* \"#utility.yul\":5886:5967   */\n      tag_241\n      jumpi\n        /* \"#utility.yul\":5952:5956   */\n      0x7f\n        /* \"#utility.yul\":5944:5950   */\n      dup3\n        /* \"#utility.yul\":5940:5957   */\n      and\n        /* \"#utility.yul\":5930:5957   */\n      swap2\n      pop\n        /* \"#utility.yul\":5886:5967   */\n    tag_241:\n        /* \"#utility.yul\":6014:6016   */\n      0x20\n        /* \"#utility.yul\":6006:6012   */\n      dup3\n        /* \"#utility.yul\":6003:6017   */\n      lt\n        /* \"#utility.yul\":5983:6001   */\n      dup2\n        /* \"#utility.yul\":5980:6018   */\n      sub\n        /* \"#utility.yul\":5977:6061   */\n      tag_242\n      jumpi\n        /* \"#utility.yul\":6033:6051   */\n      tag_243\n      tag_169\n      jump\t// in\n    tag_243:\n        /* \"#utility.yul\":5977:6061   */\n    tag_242:\n        /* \"#utility.yul\":5798:6067   */\n      pop\n        /* \"#utility.yul\":5747:6067   */\n      swap2\n      swap1\n      pop\n      jump\t// out\n        /* \"#utility.yul\":6073:6191   */\n    tag_170:\n        /* \"#utility.yul\":6160:6184   */\n      tag_245\n        /* \"#utility.yul\":6178:6183   */\n      dup2\n        /* \"#utility.yul\":6160:6184   */\n      tag_158\n      jump\t// in\n    tag_245:\n        /* \"#utility.yul\":6155:6158   */\n      dup3\n        /* \"#utility.yul\":6148:6185   */\n      mstore\n        /* \"#utility.yul\":6073:6191   */\n      pop\n      pop\n      jump\t// out\n        /* \"#utility.yul\":6197:6529   */\n    tag_81:\n        /* \"#utility.yul\":6318:6322   */\n      0x00\n        /* \"#utility.yul\":6356:6358   */\n      0x40\n        /* \"#utility.yul\":6345:6354   */\n      dup3\n        /* \"#utility.yul\":6341:6359   */\n      add\n        /* \"#utility.yul\":6333:6359   */\n      swap1\n      pop\n        /* \"#utility.yul\":6369:6440   */\n      tag_247\n        /* \"#utility.yul\":6437:6438   */\n      0x00\n        /* \"#utility.yul\":6426:6435   */\n      dup4\n        /* \"#utility.yul\":6422:6439   */\n      add\n        /* \"#utility.yul\":6413:6419   */\n      dup6\n        /* \"#utility.yul\":6369:6440   */\n      tag_170\n      jump\t// in\n    tag_247:\n        /* \"#utility.yul\":6450:6522   */\n      tag_248\n        /* \"#utility.yul\":6518:6520   */\n      0x20\n        /* \"#utility.yul\":6507:6516   */\n      dup4\n        /* \"#utility.yul\":6503:6521   */\n      add\n        /* \"#utility.yul\":6494:6500   */\n      dup5\n        /* \"#utility.yul\":6450:6522   */\n      tag_166\n      jump\t// in\n    tag_248:\n        /* \"#utility.yul\":6197:6529   */\n      swap4\n      swap3\n      pop\n      pop\n      pop\n      jump\t// out\n        /* \"#utility.yul\":6535:6651   */\n    tag_171:\n        /* \"#utility.yul\":6605:6626   */\n      tag_250\n        /* \"#utility.yul\":6620:6625   */\n      dup2\n        /* \"#utility.yul\":6605:6626   */\n      tag_164\n      jump\t// in\n    tag_250:\n        /* \"#utility.yul\":6598:6603   */\n      dup2\n        /* \"#utility.yul\":6595:6627   */\n      eq\n        /* \"#utility.yul\":6585:6645   */\n      tag_251\n      jumpi\n        /* \"#utility.yul\":6641:6642   */\n      0x00\n        /* \"#utility.yul\":6638:6639   */\n      dup1\n        /* \"#utility.yul\":6631:6643   */\n      revert\n        /* \"#utility.yul\":6585:6645   */\n    tag_251:\n        /* \"#utility.yul\":6535:6651   */\n      pop\n      jump\t// out\n        /* \"#utility.yul\":6657:6794   */\n    tag_172:\n        /* \"#utility.yul\":6711:6716   */\n      0x00\n        /* \"#utility.yul\":6742:6748   */\n      dup2\n        /* \"#utility.yul\":6736:6749   */\n      mload\n        /* \"#utility.yul\":6727:6749   */\n      swap1\n      pop\n        /* \"#utility.yul\":6758:6788   */\n      tag_253\n        /* \"#utility.yul\":6782:6787   */\n      dup2\n        /* \"#utility.yul\":6758:6788   */\n      tag_171\n      jump\t// in\n    tag_253:\n        /* \"#utility.yul\":6657:6794   */\n      swap3\n      swap2\n      pop\n      pop\n      jump\t// out\n        /* \"#utility.yul\":6800:7145   */\n    tag_85:\n        /* \"#utility.yul\":6867:6873   */\n      0x00\n        /* \"#utility.yul\":6916:6918   */\n      0x20\n        /* \"#utility.yul\":6904:6913   */\n      dup3\n        /* \"#utility.yul\":6895:6902   */\n      dup5\n        /* \"#utility.yul\":6891:6914   */\n      sub\n        /* \"#utility.yul\":6887:6919   */\n      slt\n        /* \"#utility.yul\":6884:7003   */\n      iszero\n      tag_255\n      jumpi\n        /* \"#utility.yul\":6922:7001   */\n      tag_256\n      tag_155\n      jump\t// in\n    tag_256:\n        /* \"#utility.yul\":6884:7003   */\n    tag_255:\n        /* \"#utility.yul\":7042:7043   */\n      0x00\n        /* \"#utility.yul\":7067:7128   */\n      tag_257\n        /* \"#utility.yul\":7120:7127   */\n      dup5\n        /* \"#utility.yul\":7111:7117   */\n      dup3\n        /* \"#utility.yul\":7100:7109   */\n      dup6\n        /* \"#utility.yul\":7096:7118   */\n      add\n        /* \"#utility.yul\":7067:7128   */\n      tag_172\n      jump\t// in\n    tag_257:\n        /* \"#utility.yul\":7057:7128   */\n      swap2\n      pop\n        /* \"#utility.yul\":7013:7138   */\n      pop\n        /* \"#utility.yul\":6800:7145   */\n      swap3\n      swap2\n      pop\n      pop\n      jump\t// out\n        /* \"#utility.yul\":7151:7318   */\n    tag_173:\n        /* \"#utility.yul\":7291:7310   */\n      0x4e6f20746f6b656e735265636569766564000000000000000000000000000000\n        /* \"#utility.yul\":7287:7288   */\n      0x00\n        /* \"#utility.yul\":7279:7285   */\n      dup3\n        /* \"#utility.yul\":7275:7289   */\n      add\n        /* \"#utility.yul\":7268:7311   */\n      mstore\n        /* \"#utility.yul\":7151:7318   */\n      pop\n      jump\t// out\n        /* \"#utility.yul\":7324:7690   */\n    tag_174:\n        /* \"#utility.yul\":7466:7469   */\n      0x00\n        /* \"#utility.yul\":7487:7554   */\n      tag_260\n        /* \"#utility.yul\":7551:7553   */\n      0x11\n        /* \"#utility.yul\":7546:7549   */\n      dup4\n        /* \"#utility.yul\":7487:7554   */\n      tag_150\n      jump\t// in\n    tag_260:\n        /* \"#utility.yul\":7480:7554   */\n      swap2\n      pop\n        /* \"#utility.yul\":7563:7656   */\n      tag_261\n        /* \"#utility.yul\":7652:7655   */\n      dup3\n        /* \"#utility.yul\":7563:7656   */\n      tag_173\n      jump\t// in\n    tag_261:\n        /* \"#utility.yul\":7681:7683   */\n      0x20\n        /* \"#utility.yul\":7676:7679   */\n      dup3\n        /* \"#utility.yul\":7672:7684   */\n      add\n        /* \"#utility.yul\":7665:7684   */\n      swap1\n      pop\n        /* \"#utility.yul\":7324:7690   */\n      swap2\n      swap1\n      pop\n      jump\t// out\n        /* \"#utility.yul\":7696:8115   */\n    tag_88:\n        /* \"#utility.yul\":7862:7866   */\n      0x00\n        /* \"#utility.yul\":7900:7902   */\n      0x20\n        /* \"#utility.yul\":7889:7898   */\n      dup3\n        /* \"#utility.yul\":7885:7903   */\n      add\n        /* \"#utility.yul\":7877:7903   */\n      swap1\n      pop\n        /* \"#utility.yul\":7949:7958   */\n      dup2\n        /* \"#utility.yul\":7943:7947   */\n      dup2\n        /* \"#utility.yul\":7939:7959   */\n      sub\n        /* \"#utility.yul\":7935:7936   */\n      0x00\n        /* \"#utility.yul\":7924:7933   */\n      dup4\n        /* \"#utility.yul\":7920:7937   */\n      add\n        /* \"#utility.yul\":7913:7960   */\n      mstore\n        /* \"#utility.yul\":7977:8108   */\n      tag_263\n        /* \"#utility.yul\":8103:8107   */\n      dup2\n        /* \"#utility.yul\":7977:8108   */\n      tag_174\n      jump\t// in\n    tag_263:\n        /* \"#utility.yul\":7969:8108   */\n      swap1\n      pop\n        /* \"#utility.yul\":7696:8115   */\n      swap2\n      swap1\n      pop\n      jump\t// out\n        /* \"#utility.yul\":8121:8343   */\n    tag_117:\n        /* \"#utility.yul\":8214:8218   */\n      0x00\n        /* \"#utility.yul\":8252:8254   */\n      0x20\n        /* \"#utility.yul\":8241:8250   */\n      dup3\n        /* \"#utility.yul\":8237:8255   */\n      add\n        /* \"#utility.yul\":8229:8255   */\n      swap1\n      pop\n        /* \"#utility.yul\":8265:8336   */\n      tag_265\n        /* \"#utility.yul\":8333:8334   */\n      0x00\n        /* \"#utility.yul\":8322:8331   */\n      dup4\n        /* \"#utility.yul\":8318:8335   */\n      add\n        /* \"#utility.yul\":8309:8315   */\n      dup5\n        /* \"#utility.yul\":8265:8336   */\n      tag_170\n      jump\t// in\n    tag_265:\n        /* \"#utility.yul\":8121:8343   */\n      swap3\n      swap2\n      pop\n      pop\n      jump\t// out\n        /* \"#utility.yul\":8349:8791   */\n    tag_128:\n        /* \"#utility.yul\":8498:8502   */\n      0x00\n        /* \"#utility.yul\":8536:8538   */\n      0x60\n        /* \"#utility.yul\":8525:8534   */\n      dup3\n        /* \"#utility.yul\":8521:8539   */\n      add\n        /* \"#utility.yul\":8513:8539   */\n      swap1\n      pop\n        /* \"#utility.yul\":8549:8620   */\n      tag_267\n        /* \"#utility.yul\":8617:8618   */\n      0x00\n        /* \"#utility.yul\":8606:8615   */\n      dup4\n        /* \"#utility.yul\":8602:8619   */\n      add\n        /* \"#utility.yul\":8593:8599   */\n      dup7\n        /* \"#utility.yul\":8549:8620   */\n      tag_170\n      jump\t// in\n    tag_267:\n        /* \"#utility.yul\":8630:8702   */\n      tag_268\n        /* \"#utility.yul\":8698:8700   */\n      0x20\n        /* \"#utility.yul\":8687:8696   */\n      dup4\n        /* \"#utility.yul\":8683:8701   */\n      add\n        /* \"#utility.yul\":8674:8680   */\n      dup6\n        /* \"#utility.yul\":8630:8702   */\n      tag_166\n      jump\t// in\n    tag_268:\n        /* \"#utility.yul\":8712:8784   */\n      tag_269\n        /* \"#utility.yul\":8780:8782   */\n      0x40\n        /* \"#utility.yul\":8769:8778   */\n      dup4\n        /* \"#utility.yul\":8765:8783   */\n      add\n        /* \"#utility.yul\":8756:8762   */\n      dup5\n        /* \"#utility.yul\":8712:8784   */\n      tag_166\n      jump\t// in\n    tag_269:\n        /* \"#utility.yul\":8349:8791   */\n      swap5\n      swap4\n      pop\n      pop\n      pop\n      pop\n      jump\t// out\n        /* \"#utility.yul\":8797:8977   */\n    tag_175:\n        /* \"#utility.yul\":8845:8922   */\n      0x4e487b7100000000000000000000000000000000000000000000000000000000\n        /* \"#utility.yul\":8842:8843   */\n      0x00\n        /* \"#utility.yul\":8835:8923   */\n      mstore\n        /* \"#utility.yul\":8942:8946   */\n      0x11\n        /* \"#utility.yul\":8939:8940   */\n      0x04\n        /* \"#utility.yul\":8932:8947   */\n      mstore\n        /* \"#utility.yul\":8966:8970   */\n      0x24\n        /* \"#utility.yul\":8963:8964   */\n      0x00\n        /* \"#utility.yul\":8956:8971   */\n      revert\n        /* \"#utility.yul\":8983:9174   */\n    tag_142:\n        /* \"#utility.yul\":9023:9026   */\n      0x00\n        /* \"#utility.yul\":9042:9062   */\n      tag_272\n        /* \"#utility.yul\":9060:9061   */\n      dup3\n        /* \"#utility.yul\":9042:9062   */\n      tag_161\n      jump\t// in\n    tag_272:\n        /* \"#utility.yul\":9037:9062   */\n      swap2\n      pop\n        /* \"#utility.yul\":9076:9096   */\n      tag_273\n        /* \"#utility.yul\":9094:9095   */\n      dup4\n        /* \"#utility.yul\":9076:9096   */\n      tag_161\n      jump\t// in\n    tag_273:\n        /* \"#utility.yul\":9071:9096   */\n      swap3\n      pop\n        /* \"#utility.yul\":9119:9120   */\n      dup3\n        /* \"#utility.yul\":9116:9117   */\n      dup3\n        /* \"#utility.yul\":9112:9121   */\n      add\n        /* \"#utility.yul\":9105:9121   */\n      swap1\n      pop\n        /* \"#utility.yul\":9140:9143   */\n      dup1\n        /* \"#utility.yul\":9137:9138   */\n      dup3\n        /* \"#utility.yul\":9134:9144   */\n      gt\n        /* \"#utility.yul\":9131:9167   */\n      iszero\n      tag_274\n      jumpi\n        /* \"#utility.yul\":9147:9165   */\n      tag_275\n      tag_175\n      jump\t// in\n    tag_275:\n        /* \"#utility.yul\":9131:9167   */\n    tag_274:\n        /* \"#utility.yul\":8983:9174   */\n      swap3\n      swap2\n      pop\n      pop\n      jump\t// out\n\n    auxdata: 0xa26469706673582212206f55ee086c80c53c26d587ec50744b55d5624fd7c20cd9fdfd67b546135a984c64736f6c634300081a0033\n}\n",
				"bytecode": {
					"linkReferences": {},
					"object": "6080604052348015600e575f80fd5b506110ad8061001c5f395ff3fe608060405234801561000f575f80fd5b506004361061009c575f3560e01c8063313ce56711610064578063313ce5671461016c57806370a082311461018a57806395d89b41146101ba578063a9059cbb146101d8578063dd62ed3e146102085761009c565b806306fdde03146100a0578063095ea7b3146100be57806318160ddd146100ee5780631a825b751461010c57806323b872dd1461013c575b5f80fd5b6100a8610238565b6040516100b59190610c42565b60405180910390f35b6100d860048036038101906100d39190610cf3565b6102d6565b6040516100e59190610d4b565b60405180910390f35b6100f66102f8565b6040516101039190610d73565b60405180910390f35b61012660048036038101906101219190610cf3565b61030f565b6040516101339190610d4b565b60405180910390f35b61015660048036038101906101519190610d8c565b610409565b6040516101639190610d4b565b60405180910390f35b610174610437565b6040516101819190610df7565b60405180910390f35b6101a4600480360381019061019f9190610e10565b61043f565b6040516101b19190610d73565b60405180910390f35b6101c2610492565b6040516101cf9190610c42565b60405180910390f35b6101f260048036038101906101ed9190610cf3565b610530565b6040516101ff9190610d4b565b60405180910390f35b610222600480360381019061021d9190610e3b565b610552565b60405161022f9190610d73565b60405180910390f35b60605f6102436105e2565b905080600301805461025490610ea6565b80601f016020809104026020016040519081016040528092919081815260200182805461028090610ea6565b80156102cb5780601f106102a2576101008083540402835291602001916102cb565b820191905f5260205f20905b8154815290600101906020018083116102ae57829003601f168201915b505050505091505090565b5f806102e0610609565b90506102ed818585610610565b600191505092915050565b5f806103026105e2565b9050806002015491505090565b5f61031b338484610622565b61033a8373ffffffffffffffffffffffffffffffffffffffff16610712565b156103ff575f8373ffffffffffffffffffffffffffffffffffffffff166324a756d133856040518363ffffffff1660e01b815260040161037b929190610ee5565b6020604051808303815f875af1158015610397573d5f803e3d5ffd5b505050506040513d601f19601f820116820180604052508101906103bb9190610f36565b9050806103fd576040517f08c379a00000000000000000000000000000000000000000000000000000000081526004016103f490610fab565b60405180910390fd5b505b6001905092915050565b5f80610413610609565b9050610420858285610734565b61042b858585610622565b60019150509392505050565b5f6012905090565b5f806104496105e2565b9050805f015f8473ffffffffffffffffffffffffffffffffffffffff1673ffffffffffffffffffffffffffffffffffffffff1681526020019081526020015f2054915050919050565b60605f61049d6105e2565b90508060040180546104ae90610ea6565b80601f01602080910402602001604051908101604052809291908181526020018280546104da90610ea6565b80156105255780601f106104fc57610100808354040283529160200191610525565b820191905f5260205f20905b81548152906001019060200180831161050857829003601f168201915b505050505091505090565b5f8061053a610609565b9050610547818585610622565b600191505092915050565b5f8061055c6105e2565b9050806001015f8573ffffffffffffffffffffffffffffffffffffffff1673ffffffffffffffffffffffffffffffffffffffff1681526020019081526020015f205f8473ffffffffffffffffffffffffffffffffffffffff1673ffffffffffffffffffffffffffffffffffffffff1681526020019081526020015f205491505092915050565b5f7f52c63247e1f47db19d5ce0460030c497f067ca4cebf71ba98eeadabe20bace00905090565b5f33905090565b61061d83838360016107c6565b505050565b5f73ffffffffffffffffffffffffffffffffffffffff168373ffffffffffffffffffffffffffffffffffffffff1603610692575f6040517f96c6fd1e0000000000000000000000000000000000000000000000000000000081526004016106899190610fc9565b60405180910390fd5b5f73ffffffffffffffffffffffffffffffffffffffff168273ffffffffffffffffffffffffffffffffffffffff1603610702575f6040517fec442f050000000000000000000000000000000000000000000000000000000081526004016106f99190610fc9565b60405180910390fd5b61070d8383836109a3565b505050565b5f808273ffffffffffffffffffffffffffffffffffffffff163b119050919050565b5f61073f8484610552565b90507fffffffffffffffffffffffffffffffffffffffffffffffffffffffffffffffff81146107c057818110156107b1578281836040517ffb8f41b20000000000000000000000000000000000000000000000000000000081526004016107a893929190610fe2565b60405180910390fd5b6107bf84848484035f6107c6565b5b50505050565b5f6107cf6105e2565b90505f73ffffffffffffffffffffffffffffffffffffffff168573ffffffffffffffffffffffffffffffffffffffff1603610841575f6040517fe602df050000000000000000000000000000000000000000000000000000000081526004016108389190610fc9565b60405180910390fd5b5f73ffffffffffffffffffffffffffffffffffffffff168473ffffffffffffffffffffffffffffffffffffffff16036108b1575f6040517f94280d620000000000000000000000000000000000000000000000000000000081526004016108a89190610fc9565b60405180910390fd5b82816001015f8773ffffffffffffffffffffffffffffffffffffffff1673ffffffffffffffffffffffffffffffffffffffff1681526020019081526020015f205f8673ffffffffffffffffffffffffffffffffffffffff1673ffffffffffffffffffffffffffffffffffffffff1681526020019081526020015f2081905550811561099c578373ffffffffffffffffffffffffffffffffffffffff168573ffffffffffffffffffffffffffffffffffffffff167f8c5be1e5ebec7d5bd14f71427d1e84f3dd0314c0f7b2291e5b200ac8c7c3b925856040516109939190610d73565b60405180910390a35b5050505050565b5f6109ac6105e2565b90505f73ffffffffffffffffffffffffffffffffffffffff168473ffffffffffffffffffffffffffffffffffffffff1603610a005781816002015f8282546109f49190611044565b92505081905550610ad2565b5f815f015f8673ffffffffffffffffffffffffffffffffffffffff1673ffffffffffffffffffffffffffffffffffffffff1681526020019081526020015f2054905082811015610a8b578481846040517fe450d38c000000000000000000000000000000000000000000000000000000008152600401610a8293929190610fe2565b60405180910390fd5b828103825f015f8773ffffffffffffffffffffffffffffffffffffffff1673ffffffffffffffffffffffffffffffffffffffff1681526020019081526020015f2081905550505b5f73ffffffffffffffffffffffffffffffffffffffff168373ffffffffffffffffffffffffffffffffffffffff1603610b1b5781816002015f8282540392505081905550610b67565b81815f015f8573ffffffffffffffffffffffffffffffffffffffff1673ffffffffffffffffffffffffffffffffffffffff1681526020019081526020015f205f82825401925050819055505b8273ffffffffffffffffffffffffffffffffffffffff168473ffffffffffffffffffffffffffffffffffffffff167fddf252ad1be2c89b69c2b068fc378daa952ba7f163c4a11628f55a4df523b3ef84604051610bc49190610d73565b60405180910390a350505050565b5f81519050919050565b5f82825260208201905092915050565b8281835e5f83830152505050565b5f601f19601f8301169050919050565b5f610c1482610bd2565b610c1e8185610bdc565b9350610c2e818560208601610bec565b610c3781610bfa565b840191505092915050565b5f6020820190508181035f830152610c5a8184610c0a565b905092915050565b5f80fd5b5f73ffffffffffffffffffffffffffffffffffffffff82169050919050565b5f610c8f82610c66565b9050919050565b610c9f81610c85565b8114610ca9575f80fd5b50565b5f81359050610cba81610c96565b92915050565b5f819050919050565b610cd281610cc0565b8114610cdc575f80fd5b50565b5f81359050610ced81610cc9565b92915050565b5f8060408385031215610d0957610d08610c62565b5b5f610d1685828601610cac565b9250506020610d2785828601610cdf565b9150509250929050565b5f8115159050919050565b610d4581610d31565b82525050565b5f602082019050610d5e5f830184610d3c565b92915050565b610d6d81610cc0565b82525050565b5f602082019050610d865f830184610d64565b92915050565b5f805f60608486031215610da357610da2610c62565b5b5f610db086828701610cac565b9350506020610dc186828701610cac565b9250506040610dd286828701610cdf565b9150509250925092565b5f60ff82169050919050565b610df181610ddc565b82525050565b5f602082019050610e0a5f830184610de8565b92915050565b5f60208284031215610e2557610e24610c62565b5b5f610e3284828501610cac565b91505092915050565b5f8060408385031215610e5157610e50610c62565b5b5f610e5e85828601610cac565b9250506020610e6f85828601610cac565b9150509250929050565b7f4e487b71000000000000000000000000000000000000000000000000000000005f52602260045260245ffd5b5f6002820490506001821680610ebd57607f821691505b602082108103610ed057610ecf610e79565b5b50919050565b610edf81610c85565b82525050565b5f604082019050610ef85f830185610ed6565b610f056020830184610d64565b9392505050565b610f1581610d31565b8114610f1f575f80fd5b50565b5f81519050610f3081610f0c565b92915050565b5f60208284031215610f4b57610f4a610c62565b5b5f610f5884828501610f22565b91505092915050565b7f4e6f20746f6b656e7352656365697665640000000000000000000000000000005f82015250565b5f610f95601183610bdc565b9150610fa082610f61565b602082019050919050565b5f6020820190508181035f830152610fc281610f89565b9050919050565b5f602082019050610fdc5f830184610ed6565b92915050565b5f606082019050610ff55f830186610ed6565b6110026020830185610d64565b61100f6040830184610d64565b949350505050565b7f4e487b71000000000000000000000000000000000000000000000000000000005f52601160045260245ffd5b5f61104e82610cc0565b915061105983610cc0565b925082820190508082111561107157611070611017565b5b9291505056fea26469706673582212206f55ee086c80c53c26d587ec50744b55d5624fd7c20cd9fdfd67b546135a984c64736f6c634300081a0033",
					"opcodes": "PUSH1 0x80 PUSH1 0x40 MSTORE CALLVALUE DUP1 ISZERO PUSH1 0xE JUMPI PUSH0 DUP1 REVERT JUMPDEST POP PUSH2 0x10AD DUP1 PUSH2 0x1C PUSH0 CODECOPY PUSH0 RETURN INVALID PUSH1 0x80 PUSH1 0x40 MSTORE CALLVALUE DUP1 ISZERO PUSH2 0xF JUMPI PUSH0 DUP1 REVERT JUMPDEST POP PUSH1 0x4 CALLDATASIZE LT PUSH2 0x9C JUMPI PUSH0 CALLDATALOAD PUSH1 0xE0 SHR DUP1 PUSH4 0x313CE567 GT PUSH2 0x64 JUMPI DUP1 PUSH4 0x313CE567 EQ PUSH2 0x16C JUMPI DUP1 PUSH4 0x70A08231 EQ PUSH2 0x18A JUMPI DUP1 PUSH4 0x95D89B41 EQ PUSH2 0x1BA JUMPI DUP1 PUSH4 0xA9059CBB EQ PUSH2 0x1D8 JUMPI DUP1 PUSH4 0xDD62ED3E EQ PUSH2 0x208 JUMPI PUSH2 0x9C JUMP JUMPDEST DUP1 PUSH4 0x6FDDE03 EQ PUSH2 0xA0 JUMPI DUP1 PUSH4 0x95EA7B3 EQ PUSH2 0xBE JUMPI DUP1 PUSH4 0x18160DDD EQ PUSH2 0xEE JUMPI DUP1 PUSH4 0x1A825B75 EQ PUSH2 0x10C JUMPI DUP1 PUSH4 0x23B872DD EQ PUSH2 0x13C JUMPI JUMPDEST PUSH0 DUP1 REVERT JUMPDEST PUSH2 0xA8 PUSH2 0x238 JUMP JUMPDEST PUSH1 0x40 MLOAD PUSH2 0xB5 SWAP2 SWAP1 PUSH2 0xC42 JUMP JUMPDEST PUSH1 0x40 MLOAD DUP1 SWAP2 SUB SWAP1 RETURN JUMPDEST PUSH2 0xD8 PUSH1 0x4 DUP1 CALLDATASIZE SUB DUP2 ADD SWAP1 PUSH2 0xD3 SWAP2 SWAP1 PUSH2 0xCF3 JUMP JUMPDEST PUSH2 0x2D6 JUMP JUMPDEST PUSH1 0x40 MLOAD PUSH2 0xE5 SWAP2 SWAP1 PUSH2 0xD4B JUMP JUMPDEST PUSH1 0x40 MLOAD DUP1 SWAP2 SUB SWAP1 RETURN JUMPDEST PUSH2 0xF6 PUSH2 0x2F8 JUMP JUMPDEST PUSH1 0x40 MLOAD PUSH2 0x103 SWAP2 SWAP1 PUSH2 0xD73 JUMP JUMPDEST PUSH1 0x40 MLOAD DUP1 SWAP2 SUB SWAP1 RETURN JUMPDEST PUSH2 0x126 PUSH1 0x4 DUP1 CALLDATASIZE SUB DUP2 ADD SWAP1 PUSH2 0x121 SWAP2 SWAP1 PUSH2 0xCF3 JUMP JUMPDEST PUSH2 0x30F JUMP JUMPDEST PUSH1 0x40 MLOAD PUSH2 0x133 SWAP2 SWAP1 PUSH2 0xD4B JUMP JUMPDEST PUSH1 0x40 MLOAD DUP1 SWAP2 SUB SWAP1 RETURN JUMPDEST PUSH2 0x156 PUSH1 0x4 DUP1 CALLDATASIZE SUB DUP2 ADD SWAP1 PUSH2 0x151 SWAP2 SWAP1 PUSH2 0xD8C JUMP JUMPDEST PUSH2 0x409 JUMP JUMPDEST PUSH1 0x40 MLOAD PUSH2 0x163 SWAP2 SWAP1 PUSH2 0xD4B JUMP JUMPDEST PUSH1 0x40 MLOAD DUP1 SWAP2 SUB SWAP1 RETURN JUMPDEST PUSH2 0x174 PUSH2 0x437 JUMP JUMPDEST PUSH1 0x40 MLOAD PUSH2 0x181 SWAP2 SWAP1 PUSH2 0xDF7 JUMP JUMPDEST PUSH1 0x40 MLOAD DUP1 SWAP2 SUB SWAP1 RETURN JUMPDEST PUSH2 0x1A4 PUSH1 0x4 DUP1 CALLDATASIZE SUB DUP2 ADD SWAP1 PUSH2 0x19F SWAP2 SWAP1 PUSH2 0xE10 JUMP JUMPDEST PUSH2 0x43F JUMP JUMPDEST PUSH1 0x40 MLOAD PUSH2 0x1B1 SWAP2 SWAP1 PUSH2 0xD73 JUMP JUMPDEST PUSH1 0x40 MLOAD DUP1 SWAP2 SUB SWAP1 RETURN JUMPDEST PUSH2 0x1C2 PUSH2 0x492 JUMP JUMPDEST PUSH1 0x40 MLOAD PUSH2 0x1CF SWAP2 SWAP1 PUSH2 0xC42 JUMP JUMPDEST PUSH1 0x40 MLOAD DUP1 SWAP2 SUB SWAP1 RETURN JUMPDEST PUSH2 0x1F2 PUSH1 0x4 DUP1 CALLDATASIZE SUB DUP2 ADD SWAP1 PUSH2 0x1ED SWAP2 SWAP1 PUSH2 0xCF3 JUMP JUMPDEST PUSH2 0x530 JUMP JUMPDEST PUSH1 0x40 MLOAD PUSH2 0x1FF SWAP2 SWAP1 PUSH2 0xD4B JUMP JUMPDEST PUSH1 0x40 MLOAD DUP1 SWAP2 SUB SWAP1 RETURN JUMPDEST PUSH2 0x222 PUSH1 0x4 DUP1 CALLDATASIZE SUB DUP2 ADD SWAP1 PUSH2 0x21D SWAP2 SWAP1 PUSH2 0xE3B JUMP JUMPDEST PUSH2 0x552 JUMP JUMPDEST PUSH1 0x40 MLOAD PUSH2 0x22F SWAP2 SWAP1 PUSH2 0xD73 JUMP JUMPDEST PUSH1 0x40 MLOAD DUP1 SWAP2 SUB SWAP1 RETURN JUMPDEST PUSH1 0x60 PUSH0 PUSH2 0x243 PUSH2 0x5E2 JUMP JUMPDEST SWAP1 POP DUP1 PUSH1 0x3 ADD DUP1 SLOAD PUSH2 0x254 SWAP1 PUSH2 0xEA6 JUMP JUMPDEST DUP1 PUSH1 0x1F ADD PUSH1 0x20 DUP1 SWAP2 DIV MUL PUSH1 0x20 ADD PUSH1 0x40 MLOAD SWAP1 DUP2 ADD PUSH1 0x40 MSTORE DUP1 SWAP3 SWAP2 SWAP1 DUP2 DUP2 MSTORE PUSH1 0x20 ADD DUP3 DUP1 SLOAD PUSH2 0x280 SWAP1 PUSH2 0xEA6 JUMP JUMPDEST DUP1 ISZERO PUSH2 0x2CB JUMPI DUP1 PUSH1 0x1F LT PUSH2 0x2A2 JUMPI PUSH2 0x100 DUP1 DUP4 SLOAD DIV MUL DUP4 MSTORE SWAP2 PUSH1 0x20 ADD SWAP2 PUSH2 0x2CB JUMP JUMPDEST DUP3 ADD SWAP2 SWAP1 PUSH0 MSTORE PUSH1 0x20 PUSH0 KECCAK256 SWAP1 JUMPDEST DUP2 SLOAD DUP2 MSTORE SWAP1 PUSH1 0x1 ADD SWAP1 PUSH1 0x20 ADD DUP1 DUP4 GT PUSH2 0x2AE JUMPI DUP3 SWAP1 SUB PUSH1 0x1F AND DUP3 ADD SWAP2 JUMPDEST POP POP POP POP POP SWAP2 POP POP SWAP1 JUMP JUMPDEST PUSH0 DUP1 PUSH2 0x2E0 PUSH2 0x609 JUMP JUMPDEST SWAP1 POP PUSH2 0x2ED DUP2 DUP6 DUP6 PUSH2 0x610 JUMP JUMPDEST PUSH1 0x1 SWAP2 POP POP SWAP3 SWAP2 POP POP JUMP JUMPDEST PUSH0 DUP1 PUSH2 0x302 PUSH2 0x5E2 JUMP JUMPDEST SWAP1 POP DUP1 PUSH1 0x2 ADD SLOAD SWAP2 POP POP SWAP1 JUMP JUMPDEST PUSH0 PUSH2 0x31B CALLER DUP5 DUP5 PUSH2 0x622 JUMP JUMPDEST PUSH2 0x33A DUP4 PUSH20 0xFFFFFFFFFFFFFFFFFFFFFFFFFFFFFFFFFFFFFFFF AND PUSH2 0x712 JUMP JUMPDEST ISZERO PUSH2 0x3FF JUMPI PUSH0 DUP4 PUSH20 0xFFFFFFFFFFFFFFFFFFFFFFFFFFFFFFFFFFFFFFFF AND PUSH4 0x24A756D1 CALLER DUP6 PUSH1 0x40 MLOAD DUP4 PUSH4 0xFFFFFFFF AND PUSH1 0xE0 SHL DUP2 MSTORE PUSH1 0x4 ADD PUSH2 0x37B SWAP3 SWAP2 SWAP1 PUSH2 0xEE5 JUMP JUMPDEST PUSH1 0x20 PUSH1 0x40 MLOAD DUP1 DUP4 SUB DUP2 PUSH0 DUP8 GAS CALL ISZERO DUP1 ISZERO PUSH2 0x397 JUMPI RETURNDATASIZE PUSH0 DUP1 RETURNDATACOPY RETURNDATASIZE PUSH0 REVERT JUMPDEST POP POP POP POP PUSH1 0x40 MLOAD RETURNDATASIZE PUSH1 0x1F NOT PUSH1 0x1F DUP3 ADD AND DUP3 ADD DUP1 PUSH1 0x40 MSTORE POP DUP2 ADD SWAP1 PUSH2 0x3BB SWAP2 SWAP1 PUSH2 0xF36 JUMP JUMPDEST SWAP1 POP DUP1 PUSH2 0x3FD JUMPI PUSH1 0x40 MLOAD PUSH32 0x8C379A000000000000000000000000000000000000000000000000000000000 DUP2 MSTORE PUSH1 0x4 ADD PUSH2 0x3F4 SWAP1 PUSH2 0xFAB JUMP JUMPDEST PUSH1 0x40 MLOAD DUP1 SWAP2 SUB SWAP1 REVERT JUMPDEST POP JUMPDEST PUSH1 0x1 SWAP1 POP SWAP3 SWAP2 POP POP JUMP JUMPDEST PUSH0 DUP1 PUSH2 0x413 PUSH2 0x609 JUMP JUMPDEST SWAP1 POP PUSH2 0x420 DUP6 DUP3 DUP6 PUSH2 0x734 JUMP JUMPDEST PUSH2 0x42B DUP6 DUP6 DUP6 PUSH2 0x622 JUMP JUMPDEST PUSH1 0x1 SWAP2 POP POP SWAP4 SWAP3 POP POP POP JUMP JUMPDEST PUSH0 PUSH1 0x12 SWAP1 POP SWAP1 JUMP JUMPDEST PUSH0 DUP1 PUSH2 0x449 PUSH2 0x5E2 JUMP JUMPDEST SWAP1 POP DUP1 PUSH0 ADD PUSH0 DUP5 PUSH20 0xFFFFFFFFFFFFFFFFFFFFFFFFFFFFFFFFFFFFFFFF AND PUSH20 0xFFFFFFFFFFFFFFFFFFFFFFFFFFFFFFFFFFFFFFFF AND DUP2 MSTORE PUSH1 0x20 ADD SWAP1 DUP2 MSTORE PUSH1 0x20 ADD PUSH0 KECCAK256 SLOAD SWAP2 POP POP SWAP2 SWAP1 POP JUMP JUMPDEST PUSH1 0x60 PUSH0 PUSH2 0x49D PUSH2 0x5E2 JUMP JUMPDEST SWAP1 POP DUP1 PUSH1 0x4 ADD DUP1 SLOAD PUSH2 0x4AE SWAP1 PUSH2 0xEA6 JUMP JUMPDEST DUP1 PUSH1 0x1F ADD PUSH1 0x20 DUP1 SWAP2 DIV MUL PUSH1 0x20 ADD PUSH1 0x40 MLOAD SWAP1 DUP2 ADD PUSH1 0x40 MSTORE DUP1 SWAP3 SWAP2 SWAP1 DUP2 DUP2 MSTORE PUSH1 0x20 ADD DUP3 DUP1 SLOAD PUSH2 0x4DA SWAP1 PUSH2 0xEA6 JUMP JUMPDEST DUP1 ISZERO PUSH2 0x525 JUMPI DUP1 PUSH1 0x1F LT PUSH2 0x4FC JUMPI PUSH2 0x100 DUP1 DUP4 SLOAD DIV MUL DUP4 MSTORE SWAP2 PUSH1 0x20 ADD SWAP2 PUSH2 0x525 JUMP JUMPDEST DUP3 ADD SWAP2 SWAP1 PUSH0 MSTORE PUSH1 0x20 PUSH0 KECCAK256 SWAP1 JUMPDEST DUP2 SLOAD DUP2 MSTORE SWAP1 PUSH1 0x1 ADD SWAP1 PUSH1 0x20 ADD DUP1 DUP4 GT PUSH2 0x508 JUMPI DUP3 SWAP1 SUB PUSH1 0x1F AND DUP3 ADD SWAP2 JUMPDEST POP POP POP POP POP SWAP2 POP POP SWAP1 JUMP JUMPDEST PUSH0 DUP1 PUSH2 0x53A PUSH2 0x609 JUMP JUMPDEST SWAP1 POP PUSH2 0x547 DUP2 DUP6 DUP6 PUSH2 0x622 JUMP JUMPDEST PUSH1 0x1 SWAP2 POP POP SWAP3 SWAP2 POP POP JUMP JUMPDEST PUSH0 DUP1 PUSH2 0x55C PUSH2 0x5E2 JUMP JUMPDEST SWAP1 POP DUP1 PUSH1 0x1 ADD PUSH0 DUP6 PUSH20 0xFFFFFFFFFFFFFFFFFFFFFFFFFFFFFFFFFFFFFFFF AND PUSH20 0xFFFFFFFFFFFFFFFFFFFFFFFFFFFFFFFFFFFFFFFF AND DUP2 MSTORE PUSH1 0x20 ADD SWAP1 DUP2 MSTORE PUSH1 0x20 ADD PUSH0 KECCAK256 PUSH0 DUP5 PUSH20 0xFFFFFFFFFFFFFFFFFFFFFFFFFFFFFFFFFFFFFFFF AND PUSH20 0xFFFFFFFFFFFFFFFFFFFFFFFFFFFFFFFFFFFFFFFF AND DUP2 MSTORE PUSH1 0x20 ADD SWAP1 DUP2 MSTORE PUSH1 0x20 ADD PUSH0 KECCAK256 SLOAD SWAP2 POP POP SWAP3 SWAP2 POP POP JUMP JUMPDEST PUSH0 PUSH32 0x52C63247E1F47DB19D5CE0460030C497F067CA4CEBF71BA98EEADABE20BACE00 SWAP1 POP SWAP1 JUMP JUMPDEST PUSH0 CALLER SWAP1 POP SWAP1 JUMP JUMPDEST PUSH2 0x61D DUP4 DUP4 DUP4 PUSH1 0x1 PUSH2 0x7C6 JUMP JUMPDEST POP POP POP JUMP JUMPDEST PUSH0 PUSH20 0xFFFFFFFFFFFFFFFFFFFFFFFFFFFFFFFFFFFFFFFF AND DUP4 PUSH20 0xFFFFFFFFFFFFFFFFFFFFFFFFFFFFFFFFFFFFFFFF AND SUB PUSH2 0x692 JUMPI PUSH0 PUSH1 0x40 MLOAD PUSH32 0x96C6FD1E00000000000000000000000000000000000000000000000000000000 DUP2 MSTORE PUSH1 0x4 ADD PUSH2 0x689 SWAP2 SWAP1 PUSH2 0xFC9 JUMP JUMPDEST PUSH1 0x40 MLOAD DUP1 SWAP2 SUB SWAP1 REVERT JUMPDEST PUSH0 PUSH20 0xFFFFFFFFFFFFFFFFFFFFFFFFFFFFFFFFFFFFFFFF AND DUP3 PUSH20 0xFFFFFFFFFFFFFFFFFFFFFFFFFFFFFFFFFFFFFFFF AND SUB PUSH2 0x702 JUMPI PUSH0 PUSH1 0x40 MLOAD PUSH32 0xEC442F0500000000000000000000000000000000000000000000000000000000 DUP2 MSTORE PUSH1 0x4 ADD PUSH2 0x6F9 SWAP2 SWAP1 PUSH2 0xFC9 JUMP JUMPDEST PUSH1 0x40 MLOAD DUP1 SWAP2 SUB SWAP1 REVERT JUMPDEST PUSH2 0x70D DUP4 DUP4 DUP4 PUSH2 0x9A3 JUMP JUMPDEST POP POP POP JUMP JUMPDEST PUSH0 DUP1 DUP3 PUSH20 0xFFFFFFFFFFFFFFFFFFFFFFFFFFFFFFFFFFFFFFFF AND EXTCODESIZE GT SWAP1 POP SWAP2 SWAP1 POP JUMP JUMPDEST PUSH0 PUSH2 0x73F DUP5 DUP5 PUSH2 0x552 JUMP JUMPDEST SWAP1 POP PUSH32 0xFFFFFFFFFFFFFFFFFFFFFFFFFFFFFFFFFFFFFFFFFFFFFFFFFFFFFFFFFFFFFFFF DUP2 EQ PUSH2 0x7C0 JUMPI DUP2 DUP2 LT ISZERO PUSH2 0x7B1 JUMPI DUP3 DUP2 DUP4 PUSH1 0x40 MLOAD PUSH32 0xFB8F41B200000000000000000000000000000000000000000000000000000000 DUP2 MSTORE PUSH1 0x4 ADD PUSH2 0x7A8 SWAP4 SWAP3 SWAP2 SWAP1 PUSH2 0xFE2 JUMP JUMPDEST PUSH1 0x40 MLOAD DUP1 SWAP2 SUB SWAP1 REVERT JUMPDEST PUSH2 0x7BF DUP5 DUP5 DUP5 DUP5 SUB PUSH0 PUSH2 0x7C6 JUMP JUMPDEST JUMPDEST POP POP POP POP JUMP JUMPDEST PUSH0 PUSH2 0x7CF PUSH2 0x5E2 JUMP JUMPDEST SWAP1 POP PUSH0 PUSH20 0xFFFFFFFFFFFFFFFFFFFFFFFFFFFFFFFFFFFFFFFF AND DUP6 PUSH20 0xFFFFFFFFFFFFFFFFFFFFFFFFFFFFFFFFFFFFFFFF AND SUB PUSH2 0x841 JUMPI PUSH0 PUSH1 0x40 MLOAD PUSH32 0xE602DF0500000000000000000000000000000000000000000000000000000000 DUP2 MSTORE PUSH1 0x4 ADD PUSH2 0x838 SWAP2 SWAP1 PUSH2 0xFC9 JUMP JUMPDEST PUSH1 0x40 MLOAD DUP1 SWAP2 SUB SWAP1 REVERT JUMPDEST PUSH0 PUSH20 0xFFFFFFFFFFFFFFFFFFFFFFFFFFFFFFFFFFFFFFFF AND DUP5 PUSH20 0xFFFFFFFFFFFFFFFFFFFFFFFFFFFFFFFFFFFFFFFF AND SUB PUSH2 0x8B1 JUMPI PUSH0 PUSH1 0x40 MLOAD PUSH32 0x94280D6200000000000000000000000000000000000000000000000000000000 DUP2 MSTORE PUSH1 0x4 ADD PUSH2 0x8A8 SWAP2 SWAP1 PUSH2 0xFC9 JUMP JUMPDEST PUSH1 0x40 MLOAD DUP1 SWAP2 SUB SWAP1 REVERT JUMPDEST DUP3 DUP2 PUSH1 0x1 ADD PUSH0 DUP8 PUSH20 0xFFFFFFFFFFFFFFFFFFFFFFFFFFFFFFFFFFFFFFFF AND PUSH20 0xFFFFFFFFFFFFFFFFFFFFFFFFFFFFFFFFFFFFFFFF AND DUP2 MSTORE PUSH1 0x20 ADD SWAP1 DUP2 MSTORE PUSH1 0x20 ADD PUSH0 KECCAK256 PUSH0 DUP7 PUSH20 0xFFFFFFFFFFFFFFFFFFFFFFFFFFFFFFFFFFFFFFFF AND PUSH20 0xFFFFFFFFFFFFFFFFFFFFFFFFFFFFFFFFFFFFFFFF AND DUP2 MSTORE PUSH1 0x20 ADD SWAP1 DUP2 MSTORE PUSH1 0x20 ADD PUSH0 KECCAK256 DUP2 SWAP1 SSTORE POP DUP2 ISZERO PUSH2 0x99C JUMPI DUP4 PUSH20 0xFFFFFFFFFFFFFFFFFFFFFFFFFFFFFFFFFFFFFFFF AND DUP6 PUSH20 0xFFFFFFFFFFFFFFFFFFFFFFFFFFFFFFFFFFFFFFFF AND PUSH32 0x8C5BE1E5EBEC7D5BD14F71427D1E84F3DD0314C0F7B2291E5B200AC8C7C3B925 DUP6 PUSH1 0x40 MLOAD PUSH2 0x993 SWAP2 SWAP1 PUSH2 0xD73 JUMP JUMPDEST PUSH1 0x40 MLOAD DUP1 SWAP2 SUB SWAP1 LOG3 JUMPDEST POP POP POP POP POP JUMP JUMPDEST PUSH0 PUSH2 0x9AC PUSH2 0x5E2 JUMP JUMPDEST SWAP1 POP PUSH0 PUSH20 0xFFFFFFFFFFFFFFFFFFFFFFFFFFFFFFFFFFFFFFFF AND DUP5 PUSH20 0xFFFFFFFFFFFFFFFFFFFFFFFFFFFFFFFFFFFFFFFF AND SUB PUSH2 0xA00 JUMPI DUP2 DUP2 PUSH1 0x2 ADD PUSH0 DUP3 DUP3 SLOAD PUSH2 0x9F4 SWAP2 SWAP1 PUSH2 0x1044 JUMP JUMPDEST SWAP3 POP POP DUP2 SWAP1 SSTORE POP PUSH2 0xAD2 JUMP JUMPDEST PUSH0 DUP2 PUSH0 ADD PUSH0 DUP7 PUSH20 0xFFFFFFFFFFFFFFFFFFFFFFFFFFFFFFFFFFFFFFFF AND PUSH20 0xFFFFFFFFFFFFFFFFFFFFFFFFFFFFFFFFFFFFFFFF AND DUP2 MSTORE PUSH1 0x20 ADD SWAP1 DUP2 MSTORE PUSH1 0x20 ADD PUSH0 KECCAK256 SLOAD SWAP1 POP DUP3 DUP2 LT ISZERO PUSH2 0xA8B JUMPI DUP5 DUP2 DUP5 PUSH1 0x40 MLOAD PUSH32 0xE450D38C00000000000000000000000000000000000000000000000000000000 DUP2 MSTORE PUSH1 0x4 ADD PUSH2 0xA82 SWAP4 SWAP3 SWAP2 SWAP1 PUSH2 0xFE2 JUMP JUMPDEST PUSH1 0x40 MLOAD DUP1 SWAP2 SUB SWAP1 REVERT JUMPDEST DUP3 DUP2 SUB DUP3 PUSH0 ADD PUSH0 DUP8 PUSH20 0xFFFFFFFFFFFFFFFFFFFFFFFFFFFFFFFFFFFFFFFF AND PUSH20 0xFFFFFFFFFFFFFFFFFFFFFFFFFFFFFFFFFFFFFFFF AND DUP2 MSTORE PUSH1 0x20 ADD SWAP1 DUP2 MSTORE PUSH1 0x20 ADD PUSH0 KECCAK256 DUP2 SWAP1 SSTORE POP POP JUMPDEST PUSH0 PUSH20 0xFFFFFFFFFFFFFFFFFFFFFFFFFFFFFFFFFFFFFFFF AND DUP4 PUSH20 0xFFFFFFFFFFFFFFFFFFFFFFFFFFFFFFFFFFFFFFFF AND SUB PUSH2 0xB1B JUMPI DUP2 DUP2 PUSH1 0x2 ADD PUSH0 DUP3 DUP3 SLOAD SUB SWAP3 POP POP DUP2 SWAP1 SSTORE POP PUSH2 0xB67 JUMP JUMPDEST DUP2 DUP2 PUSH0 ADD PUSH0 DUP6 PUSH20 0xFFFFFFFFFFFFFFFFFFFFFFFFFFFFFFFFFFFFFFFF AND PUSH20 0xFFFFFFFFFFFFFFFFFFFFFFFFFFFFFFFFFFFFFFFF AND DUP2 MSTORE PUSH1 0x20 ADD SWAP1 DUP2 MSTORE PUSH1 0x20 ADD PUSH0 KECCAK256 PUSH0 DUP3 DUP3 SLOAD ADD SWAP3 POP POP DUP2 SWAP1 SSTORE POP JUMPDEST DUP3 PUSH20 0xFFFFFFFFFFFFFFFFFFFFFFFFFFFFFFFFFFFFFFFF AND DUP5 PUSH20 0xFFFFFFFFFFFFFFFFFFFFFFFFFFFFFFFFFFFFFFFF AND PUSH32 0xDDF252AD1BE2C89B69C2B068FC378DAA952BA7F163C4A11628F55A4DF523B3EF DUP5 PUSH1 0x40 MLOAD PUSH2 0xBC4 SWAP2 SWAP1 PUSH2 0xD73 JUMP JUMPDEST PUSH1 0x40 MLOAD DUP1 SWAP2 SUB SWAP1 LOG3 POP POP POP POP JUMP JUMPDEST PUSH0 DUP2 MLOAD SWAP1 POP SWAP2 SWAP1 POP JUMP JUMPDEST PUSH0 DUP3 DUP3 MSTORE PUSH1 0x20 DUP3 ADD SWAP1 POP SWAP3 SWAP2 POP POP JUMP JUMPDEST DUP3 DUP2 DUP4 MCOPY PUSH0 DUP4 DUP4 ADD MSTORE POP POP POP JUMP JUMPDEST PUSH0 PUSH1 0x1F NOT PUSH1 0x1F DUP4 ADD AND SWAP1 POP SWAP2 SWAP1 POP JUMP JUMPDEST PUSH0 PUSH2 0xC14 DUP3 PUSH2 0xBD2 JUMP JUMPDEST PUSH2 0xC1E DUP2 DUP6 PUSH2 0xBDC JUMP JUMPDEST SWAP4 POP PUSH2 0xC2E DUP2 DUP6 PUSH1 0x20 DUP7 ADD PUSH2 0xBEC JUMP JUMPDEST PUSH2 0xC37 DUP2 PUSH2 0xBFA JUMP JUMPDEST DUP5 ADD SWAP2 POP POP SWAP3 SWAP2 POP POP JUMP JUMPDEST PUSH0 PUSH1 0x20 DUP3 ADD SWAP1 POP DUP2 DUP2 SUB PUSH0 DUP4 ADD MSTORE PUSH2 0xC5A DUP2 DUP5 PUSH2 0xC0A JUMP JUMPDEST SWAP1 POP SWAP3 SWAP2 POP POP JUMP JUMPDEST PUSH0 DUP1 REVERT JUMPDEST PUSH0 PUSH20 0xFFFFFFFFFFFFFFFFFFFFFFFFFFFFFFFFFFFFFFFF DUP3 AND SWAP1 POP SWAP2 SWAP1 POP JUMP JUMPDEST PUSH0 PUSH2 0xC8F DUP3 PUSH2 0xC66 JUMP JUMPDEST SWAP1 POP SWAP2 SWAP1 POP JUMP JUMPDEST PUSH2 0xC9F DUP2 PUSH2 0xC85 JUMP JUMPDEST DUP2 EQ PUSH2 0xCA9 JUMPI PUSH0 DUP1 REVERT JUMPDEST POP JUMP JUMPDEST PUSH0 DUP2 CALLDATALOAD SWAP1 POP PUSH2 0xCBA DUP2 PUSH2 0xC96 JUMP JUMPDEST SWAP3 SWAP2 POP POP JUMP JUMPDEST PUSH0 DUP2 SWAP1 POP SWAP2 SWAP1 POP JUMP JUMPDEST PUSH2 0xCD2 DUP2 PUSH2 0xCC0 JUMP JUMPDEST DUP2 EQ PUSH2 0xCDC JUMPI PUSH0 DUP1 REVERT JUMPDEST POP JUMP JUMPDEST PUSH0 DUP2 CALLDATALOAD SWAP1 POP PUSH2 0xCED DUP2 PUSH2 0xCC9 JUMP JUMPDEST SWAP3 SWAP2 POP POP JUMP JUMPDEST PUSH0 DUP1 PUSH1 0x40 DUP4 DUP6 SUB SLT ISZERO PUSH2 0xD09 JUMPI PUSH2 0xD08 PUSH2 0xC62 JUMP JUMPDEST JUMPDEST PUSH0 PUSH2 0xD16 DUP6 DUP3 DUP7 ADD PUSH2 0xCAC JUMP JUMPDEST SWAP3 POP POP PUSH1 0x20 PUSH2 0xD27 DUP6 DUP3 DUP7 ADD PUSH2 0xCDF JUMP JUMPDEST SWAP2 POP POP SWAP3 POP SWAP3 SWAP1 POP JUMP JUMPDEST PUSH0 DUP2 ISZERO ISZERO SWAP1 POP SWAP2 SWAP1 POP JUMP JUMPDEST PUSH2 0xD45 DUP2 PUSH2 0xD31 JUMP JUMPDEST DUP3 MSTORE POP POP JUMP JUMPDEST PUSH0 PUSH1 0x20 DUP3 ADD SWAP1 POP PUSH2 0xD5E PUSH0 DUP4 ADD DUP5 PUSH2 0xD3C JUMP JUMPDEST SWAP3 SWAP2 POP POP JUMP JUMPDEST PUSH2 0xD6D DUP2 PUSH2 0xCC0 JUMP JUMPDEST DUP3 MSTORE POP POP JUMP JUMPDEST PUSH0 PUSH1 0x20 DUP3 ADD SWAP1 POP PUSH2 0xD86 PUSH0 DUP4 ADD DUP5 PUSH2 0xD64 JUMP JUMPDEST SWAP3 SWAP2 POP POP JUMP JUMPDEST PUSH0 DUP1 PUSH0 PUSH1 0x60 DUP5 DUP7 SUB SLT ISZERO PUSH2 0xDA3 JUMPI PUSH2 0xDA2 PUSH2 0xC62 JUMP JUMPDEST JUMPDEST PUSH0 PUSH2 0xDB0 DUP7 DUP3 DUP8 ADD PUSH2 0xCAC JUMP JUMPDEST SWAP4 POP POP PUSH1 0x20 PUSH2 0xDC1 DUP7 DUP3 DUP8 ADD PUSH2 0xCAC JUMP JUMPDEST SWAP3 POP POP PUSH1 0x40 PUSH2 0xDD2 DUP7 DUP3 DUP8 ADD PUSH2 0xCDF JUMP JUMPDEST SWAP2 POP POP SWAP3 POP SWAP3 POP SWAP3 JUMP JUMPDEST PUSH0 PUSH1 0xFF DUP3 AND SWAP1 POP SWAP2 SWAP1 POP JUMP JUMPDEST PUSH2 0xDF1 DUP2 PUSH2 0xDDC JUMP JUMPDEST DUP3 MSTORE POP POP JUMP JUMPDEST PUSH0 PUSH1 0x20 DUP3 ADD SWAP1 POP PUSH2 0xE0A PUSH0 DUP4 ADD DUP5 PUSH2 0xDE8 JUMP JUMPDEST SWAP3 SWAP2 POP POP JUMP JUMPDEST PUSH0 PUSH1 0x20 DUP3 DUP5 SUB SLT ISZERO PUSH2 0xE25 JUMPI PUSH2 0xE24 PUSH2 0xC62 JUMP JUMPDEST JUMPDEST PUSH0 PUSH2 0xE32 DUP5 DUP3 DUP6 ADD PUSH2 0xCAC JUMP JUMPDEST SWAP2 POP POP SWAP3 SWAP2 POP POP JUMP JUMPDEST PUSH0 DUP1 PUSH1 0x40 DUP4 DUP6 SUB SLT ISZERO PUSH2 0xE51 JUMPI PUSH2 0xE50 PUSH2 0xC62 JUMP JUMPDEST JUMPDEST PUSH0 PUSH2 0xE5E DUP6 DUP3 DUP7 ADD PUSH2 0xCAC JUMP JUMPDEST SWAP3 POP POP PUSH1 0x20 PUSH2 0xE6F DUP6 DUP3 DUP7 ADD PUSH2 0xCAC JUMP JUMPDEST SWAP2 POP POP SWAP3 POP SWAP3 SWAP1 POP JUMP JUMPDEST PUSH32 0x4E487B7100000000000000000000000000000000000000000000000000000000 PUSH0 MSTORE PUSH1 0x22 PUSH1 0x4 MSTORE PUSH1 0x24 PUSH0 REVERT JUMPDEST PUSH0 PUSH1 0x2 DUP3 DIV SWAP1 POP PUSH1 0x1 DUP3 AND DUP1 PUSH2 0xEBD JUMPI PUSH1 0x7F DUP3 AND SWAP2 POP JUMPDEST PUSH1 0x20 DUP3 LT DUP2 SUB PUSH2 0xED0 JUMPI PUSH2 0xECF PUSH2 0xE79 JUMP JUMPDEST JUMPDEST POP SWAP2 SWAP1 POP JUMP JUMPDEST PUSH2 0xEDF DUP2 PUSH2 0xC85 JUMP JUMPDEST DUP3 MSTORE POP POP JUMP JUMPDEST PUSH0 PUSH1 0x40 DUP3 ADD SWAP1 POP PUSH2 0xEF8 PUSH0 DUP4 ADD DUP6 PUSH2 0xED6 JUMP JUMPDEST PUSH2 0xF05 PUSH1 0x20 DUP4 ADD DUP5 PUSH2 0xD64 JUMP JUMPDEST SWAP4 SWAP3 POP POP POP JUMP JUMPDEST PUSH2 0xF15 DUP2 PUSH2 0xD31 JUMP JUMPDEST DUP2 EQ PUSH2 0xF1F JUMPI PUSH0 DUP1 REVERT JUMPDEST POP JUMP JUMPDEST PUSH0 DUP2 MLOAD SWAP1 POP PUSH2 0xF30 DUP2 PUSH2 0xF0C JUMP JUMPDEST SWAP3 SWAP2 POP POP JUMP JUMPDEST PUSH0 PUSH1 0x20 DUP3 DUP5 SUB SLT ISZERO PUSH2 0xF4B JUMPI PUSH2 0xF4A PUSH2 0xC62 JUMP JUMPDEST JUMPDEST PUSH0 PUSH2 0xF58 DUP5 DUP3 DUP6 ADD PUSH2 0xF22 JUMP JUMPDEST SWAP2 POP POP SWAP3 SWAP2 POP POP JUMP JUMPDEST PUSH32 0x4E6F20746F6B656E735265636569766564000000000000000000000000000000 PUSH0 DUP3 ADD MSTORE POP JUMP JUMPDEST PUSH0 PUSH2 0xF95 PUSH1 0x11 DUP4 PUSH2 0xBDC JUMP JUMPDEST SWAP2 POP PUSH2 0xFA0 DUP3 PUSH2 0xF61 JUMP JUMPDEST PUSH1 0x20 DUP3 ADD SWAP1 POP SWAP2 SWAP1 POP JUMP JUMPDEST PUSH0 PUSH1 0x20 DUP3 ADD SWAP1 POP DUP2 DUP2 SUB PUSH0 DUP4 ADD MSTORE PUSH2 0xFC2 DUP2 PUSH2 0xF89 JUMP JUMPDEST SWAP1 POP SWAP2 SWAP1 POP JUMP JUMPDEST PUSH0 PUSH1 0x20 DUP3 ADD SWAP1 POP PUSH2 0xFDC PUSH0 DUP4 ADD DUP5 PUSH2 0xED6 JUMP JUMPDEST SWAP3 SWAP2 POP POP JUMP JUMPDEST PUSH0 PUSH1 0x60 DUP3 ADD SWAP1 POP PUSH2 0xFF5 PUSH0 DUP4 ADD DUP7 PUSH2 0xED6 JUMP JUMPDEST PUSH2 0x1002 PUSH1 0x20 DUP4 ADD DUP6 PUSH2 0xD64 JUMP JUMPDEST PUSH2 0x100F PUSH1 0x40 DUP4 ADD DUP5 PUSH2 0xD64 JUMP JUMPDEST SWAP5 SWAP4 POP POP POP POP JUMP JUMPDEST PUSH32 0x4E487B7100000000000000000000000000000000000000000000000000000000 PUSH0 MSTORE PUSH1 0x11 PUSH1 0x4 MSTORE PUSH1 0x24 PUSH0 REVERT JUMPDEST PUSH0 PUSH2 0x104E DUP3 PUSH2 0xCC0 JUMP JUMPDEST SWAP2 POP PUSH2 0x1059 DUP4 PUSH2 0xCC0 JUMP JUMPDEST SWAP3 POP DUP3 DUP3 ADD SWAP1 POP DUP1 DUP3 GT ISZERO PUSH2 0x1071 JUMPI PUSH2 0x1070 PUSH2 0x1017 JUMP JUMPDEST JUMPDEST SWAP3 SWAP2 POP POP JUMP INVALID LOG2 PUSH5 0x6970667358 0x22 SLT KECCAK256 PUSH16 0x55EE086C80C53C26D587EC50744B55D5 PUSH3 0x4FD7C2 0xC 0xD9 REVERT REVERT PUSH8 0xB546135A984C6473 PUSH16 0x6C634300081A00330000000000000000 "
				},
				"gasEstimates": {
					"creation": {
						"codeDepositCost": "853800",
						"executionCost": "888",
						"totalCost": "854688"
					},
					"external": {
						"allowance(address,address)": "infinite",
						"approve(address,uint256)": "infinite",
						"balanceOf(address)": "2903",
						"decimals()": "338",
						"name()": "infinite",
						"symbol()": "infinite",
						"totalSupply()": "2530",
						"transfer(address,uint256)": "infinite",
						"transferFrom(address,address,uint256)": "infinite",
						"transferWithCallback(address,uint256)": "infinite"
					}
				},
				"methodIdentifiers": {
					"allowance(address,address)": "dd62ed3e",
					"approve(address,uint256)": "095ea7b3",
					"balanceOf(address)": "70a08231",
					"decimals()": "313ce567",
					"name()": "06fdde03",
					"symbol()": "95d89b41",
					"totalSupply()": "18160ddd",
					"transfer(address,uint256)": "a9059cbb",
					"transferFrom(address,address,uint256)": "23b872dd",
					"transferWithCallback(address,uint256)": "1a825b75"
				}
			},
			"storageLayout": {
				"storage": [],
				"types": null
			},
			"userdoc": {
				"kind": "user",
				"methods": {},
				"version": 1
			}
		}
	}
}